:020000040800F2
:10000000C80500209D010008E5210008891B0008A3
:10001000E1210008A9020008D5280008000000001E
:10002000000000000000000000000000E9210008BE
:10003000FD02000800000000E7210008EB21000895
:10004000B7010008B7010008B7010008B7010008B0
:10005000B7010008B7010008B7010008B7010008A0
:10006000B7010008B7010008B7010008B701000890
:10007000B7010008B7010008B7010008B701000880
:10008000B7010008B7010008B7010008B701000870
:10009000B7010008B7010008B701000871030008A4
:1000A000B7010008B7010008B7010008B701000850
:1000B000B7010008B7010008B7010008B701000840
:1000C000B7010008B7010008B7010008B701000830
:1000D000B7010008B7010008B9280008B7010008F7
:1000E000B7010008B7010008B7010008B701000810
:1000F000B7010008B7010008B7010008B701000800
:10010000B7010008B7010008B7010008B7010008EF
:10011000B7010008B7010008B7010008B7010008DF
:10012000B7010008B7010008B7010008B7010008CF
:10013000B7010008B7010008B7010008B7010008BF
:10014000B7010008B7010008B7010008B7010008AF
:10015000B7010008B7010008B7010008B70100089F
:10016000B7010008B7010008B7010008B70100088F
:10017000B7010008B7010008B7010008000000003F
:10018000B7010008B7010008DFF80CD000F07AF8DA
:10019000004800473D2C0008C8050020064880475D
:1001A00006480047FEE7FEE7FEE7FEE7FEE7FEE75C
:1001B000FEE7FEE7FEE7FEE7AD2200088901000842
:1001C0002DE9F05F0546002092469B46884606468C
:1001D000814640241BE0284641464746224600F01F
:1001E00041F853465A46C01A914110D31146184659
:1001F000224600F028F82D1A67EB01084F462246E8
:100200000120002100F01FF817EB00094E41201ECD
:10021000A4F10104DFDC484631462A464346BDE8E6
:10022000F09FD2B201E000F8012B491EFBD27047CB
:100230000022F6E710B513460A4604461946FFF7B2
:10024000F0FF204610BD202A04DB203A00FA02F11C
:10025000002070479140C2F1200320FA03F31943B4
:1002600090407047202A04DB203A21FA02F0002156
:10027000704721FA02F3D040C2F1200291400843B6
:1002800019467047064C074D06E0E06840F0010350
:1002900094E8070098471034AC42F6D3FFF778FF94
:1002A000982E0008B82E000800BFFEE7FEB50446F1
:1002B0000D464FF6FF7001210B462246CDE9005155
:1002C0000290D121024800F0D9FA06463046FEBD20
:1002D00024000020FEB504460D464FF6FF700121B4
:1002E0000B462246CDE900510290D021024800F091
:1002F0003FFC06463046FEBD24000020704700004B
:1003000010B5044600204FF0E021086101F02CF9FF
:100310001520B4FBF0F00149086010BD100000206A
:1003200000214FF47A724243104B1B685A434FF03E
:10033000E0235A6100229A611A46126942F00102D2
:100340001A6100BF4FF0E022116901F001021AB1F9
:1003500001F48032002AF5D04FF0E02212694FF00C
:10036000E0231A6100229A6170470000100000200B
:1003700010B54FF4007000F083F84FF4807000F077
:100380007FF810BD70B50446A56D00F089F90646EA
:1003900094F83500022808D08020606500BF002056
:1003A00084F8340000BF012070BD2068006820F090
:1003B0001600216808602068406920F080002168EC
:1003C0004861206C08B9A06C28B12068006820F052
:1003D0000800216808602068006820F0010021689A
:1003E000086010E000F05CF9801B05280BD9202084
:1003F0006065032084F8350000BF002084F83400D5
:1004000000BF0320D0E72068006800F0010000284A
:10041000E8D194F85C103F208840A860012084F85F
:10042000350000BF002084F8340000BF00BFBBE7E8
:10043000014691F83500022803D08020486501204C
:100440007047052081F835000868006820F0010039
:100450000A6810600020F3E7B0F5807F06D0B0F5A1
:10046000007F07D10121044A117003E00121034AF2
:10047000117000BF00BF704714000020150000205D
:1004800010B5044604480068204020B102480460CA
:100490002046FFF7E1FF10BD143C0140F8B50246CD
:1004A0000B460025002400200021D6E0012606FA94
:1004B00001F51E6806EA0504AC4274D11E7906F007
:1004C0000306012E04D01E7906F00306022E13D176
:1004D00090684F000326BE40B0434F00DE68BE4028
:1004E00030439060506801268E40B0431E79C6F3B9
:1004F00000168E40304350601E7906F00306032E2E
:1005000009D0D0684F000326BE40B0434F009E681C
:10051000BE403043D0601E7906F00306022E13D190
:10052000CF0802F1200656F827004E07F70E0F26D7
:10053000BE40B0434F07FF0E1E69BE403043CF0898
:1005400002F1200646F8270010684F000326BE403F
:10055000B0431E7906F003064F00BE4030431060E2
:100560005E6806F44036002E76D000BF0026009666
:100570003C4E366846F480463A4F3E603E4636680A
:1005800006F48046009600BF00BF374E8F0856F82D
:1005900027008E07370F0F26BE40B043334EB242BE
:1005A00002D1002624E057E0314EB24201D10126AB
:1005B0001EE0304EB24201D1022619E02E4EB24268
:1005C00001D1032614E02D4EB24201D104260FE0E2
:1005D0002B4EB24201D105260AE02A4EB24201D189
:1005E000062605E0284EB24201D1072600E0082683
:1005F0008F073F0FBE4030431B4E8F0846F8270041
:10060000224E3068A0435E6806F4801606B120438F
:100610001E4E3060361D3068A0435E6806F400163A
:1006200006B12043194E361D3060184E361F306813
:10063000A0435E6806F4003606B12043134E361F11
:100640003060361F3068A0435E6806F4803606B11D
:1006500020430E4E083E3060491C1029FFF426AF9F
:10066000F8BD000044380240083801400000024054
:100670000004024000080240000C0240001002404A
:100680000014024000180240001C0240083C0140D7
:10069000024613690B400BB1012000E000207047B7
:1006A00001480068704700000400002070B504464F
:1006B0000CB9012070BD94F83D0028B9002084F8E1
:1006C0003C00204600F006FB242084F83D00206812
:1006D000006820F00100216808602068006840F48C
:1006E0000040216808602068006820F4004021680C
:1006F000086000F073FC05465C496068884206D8D3
:100700005B48854201D2012007E0002005E05948FE
:10071000854201D2012000E00020012800D1C9E774
:100720005548B5FBF0F62068406820F03F003043A4
:10073000216848604D496068884201D8701C07E014
:100740004FF4967070434FF47A71B0FBF1F0401C97
:100750002168096A21F03F01084321680862434982
:100760006068884214D8681E61684900B0FBF1F0E7
:10077000401CC0F30B00042801D204203DE0681E99
:1007800061684900B0FBF1F0401CC0F30B0034E09D
:10079000A06838B9681E616801EB4101B0FBF1F057
:1007A000401C0AE0681E616801EBC10202EB011106
:1007B000B0FBF1F0401C40F48040C0F30B0008B9DE
:1007C00001201AE0A06848B9681E616801EB410188
:1007D000B0FBF1F0401CC0F30B000CE0681E616838
:1007E00001EBC10202EB0111B0FBF1F0401CC0F3C0
:1007F0000B0040F4804040F400402168C9694CF689
:10080000FF72914308432168C861D4E90701084396
:100810002168096821F0C001084321680860D4E913
:10082000031008432168896848F2FF329143084366
:1008300021688860D4E9050108432168C96821F06E
:10084000FF0108432168C8602068006840F001008B
:100850002168086000202064202084F83D000020EA
:10086000206384F83E0000BF24E70000A08601005A
:1008700080841E0000093D0040420F002DE9FC5F0E
:1008800004460F4690469946DDE90CAB0E9EFFF7F5
:1008900007FF054694F83D00202870D11923012256
:1008A000B0492046009501F043FB10B10220BDE89D
:1008B000FC9F00BF94F83C00012801D10220F6E71C
:1008C000012084F83C0000BF2068006800F00100AF
:1008D00028B92068006840F001002168086020689D
:1008E000006820F4006021680860222084F83D0040
:1008F000402084F83E0000202064C4F824A0A4F81E
:100900002AB0608D20859848E0624B4642463946C1
:100910002046CDE9006501F0BDF908B10120C6E728
:10092000208D88B900BF00200190206840690190A7
:1009300020688069019000BF00BF2068006840F413
:1009400000702168086040E0208D012818D12068DF
:10095000006820F480602168086000BF00200190DA
:1009600020684069019020688069019000BF00BF45
:100970002068006840F400702168086025E0EFE01E
:10098000208D022816D12068006820F4806021683C
:1009900008602068006840F400602168086000BFBB
:1009A00000200190206840690190206880690190D2
:1009B00000BF0AE000BF002001902068406901905C
:1009C00020688069019000BF00BFBAE0208D032835
:1009D0007ED8208D012815D12A463146204601F0C7
:1009E0004CFB08B1012062E720680069616A087069
:1009F000606A401C6062208D401E2085608D401E14
:100A000060859EE0208D02282AD133460022574976
:100A10002046009501F08CFA08B1012047E72068D4
:100A2000006840F400702168086020680069616A0D
:100A30000870606A401C6062208D401E2085608DB9
:100A4000401E608520680069616A0870606A401C09
:100A50006062208D401E2085608D401E608570E0A4
:100A60003346002241492046009501F061FA08B161
:100A700001201CE72068006820F48060216808607D
:100A800020680069616A0870606A401C6062208D9D
:100A9000401E2085608D401E60853346002233490C
:100AA0002046009501F044FA08B10120FFE62068D5
:100AB000006840F400702168086020680069616A7D
:100AC0000870606A401C6062208D401E208500E036
:100AD00010E0608D401E608520680069616A0870C2
:100AE000606A401C6062208D401E2085608D401E23
:100AF000608526E02A463146204601F0BEFA08B15C
:100B00000120D4E620680069616A0870606A401CB0
:100B10006062208D401E2085608D401E60852068AB
:100B20004069C0F3800060B120680069616A0870A4
:100B3000606A401C6062208D401E2085608D401ED2
:100B40006085208D00287FF441AF202084F83D008F
:100B5000002084F83E0000BF84F83C0000BFA6E6F9
:100B60000220A4E6020010000000FFFF04000100C4
:100B70002DE9FC5F04460F4690469946DDE90CAB33
:100B80000E9EFFF78DFD054694F83D0020287DD18F
:100B9000192301224D492046009501F0C9F910B1F1
:100BA0000220BDE8FC9F00BF94F83C00012801D161
:100BB0000220F6E7012084F83C0000BF20680068AE
:100BC00000F0010028B92068006840F001002168A9
:100BD00008602068006820F4006021680860212017
:100BE00084F83D00402084F83E0000202064C4F8D2
:100BF00024A0A4F82AB0608D20853548E0624B46D9
:100C0000424639462046CDE9006501F0F3F808B1C7
:100C10000120C6E731E02A463146204601F06DFA50
:100C200050B1206C042805D12068006840F40070A1
:100C3000216808600120B4E7606A007821680861D3
:100C4000606A401C6062208D401E2085608D401EC1
:100C5000608520684069C0F3800070B1208D60B16C
:100C6000606A007821680861606A401C6062208DBB
:100C7000401E2085608D401E6085208D0028CAD1D1
:100C80002A463146204601F025F900E01CE050B12B
:100C9000206C042805D12068006840F400702168A9
:100CA000086001207DE72068006840F4007021683A
:100CB0000860202084F83D00002084F83E0000BF3A
:100CC00084F83C0000BF6CE702206AE702001000D5
:100CD0000000FFFF704700000348006803490978DF
:100CE0000844014908607047040000200C000020FF
:100CF00010B50D48006840F400700B4908600846C4
:100D0000006840F4806008600846006840F4807025
:100D10000860032000F080F80F2000F007F800F0D2
:100D20002BF8002010BD0000003C024070B50446C6
:100D30000E4800784FF47A71B1FBF0F00C49096865
:100D4000B1FBF0F5284600F023FC08B1012070BD8E
:100D5000102C07D200222146501E00F01EF8054834
:100D6000046001E00120F2E70020F0E70C00002021
:100D700000000020080000207047014608460028B7
:100D800009DB00F01F0301229A4043099B0003F195
:100D9000E023C3F8002100BF70472DE9F05F8046D3
:100DA0000D461646002701F0A7FD074639462A469C
:100DB000334601F00700C0F1070ABAF1040F02D967
:100DC0004FF0040A01E0C0F1070AD14600F1040A1D
:100DD000BAF1070F02D24FF0000A01E0A0F1030AB6
:100DE000D4464FF0010A0AFA09FAAAF1010A0AEAFE
:100DF000020A0AFA0CFA4FF0010B0BFA0CFBABF1EA
:100E0000010B0BEA030B4AEA0B042146404601F0B2
:100E10007BFDBDE8F09F000000BF00F00702064B1D
:100E200019684FF6FF031940044B0B4343EA0221B4
:100E3000014B196000BF70470CED00E00000FA059F
:100E400070B504460D460CB9012070BD58480068C5
:100E500000F00700A84209D255490D700846006805
:100E600000F00700A84201D00120EEE7207800F052
:100E7000020002281DD1207800F00400042805D1CA
:100E80004C48006840F4E0504A490860207800F07F
:100E90000800082805D14748006840F460404549EB
:100EA00008604448006820F0F000A1680843414908
:100EB0000860207800F00100A8B36068012807D11D
:100EC0003C4808380068C0F34040B8B90120BCE78E
:100ED0006068022802D06068032807D135480838C6
:100EE0000068C0F3406048B90120AEE731480838D7
:100EF0000068C0F3400008B90120A6E72D4800684B
:100F000020F00300616808432A490860FFF7C8FB26
:100F1000064609E0FFF7C4FB801B41F28831884296
:100F200002D9032091E707E02248006800F00C0096
:100F30006168B0EB810FEDD11D48006800F007003B
:100F4000A84209D91A490D700846006800F0070048
:100F5000A84201D0012078E7207800F0040004289E
:100F600007D11448006820F4E050E16808431149B3
:100F70000860207800F00800082808D10D480068B3
:100F800020F46040216940EAC1000A49086000F08D
:100F900045F808490968C1F30311074A515CC84084
:100FA0000649086006480068FFF7C0FE00204CE7CD
:100FB000003C024008380240802E0008000000205B
:100FC0000800002001200149C86470470000474222
:100FD00001480068704700000000002000B5FFF7DE
:100FE000F7FF04490968C1F38221034A515CC840F4
:100FF00000BD000008380240902E000800B5FFF741
:10100000E7FF04490968C1F34231034A515CC84013
:1010100000BD000008380240902E00082DE9F0477E
:10102000002400250026A1462548006800F00C0099
:1010300020B1042805D008283AD105E0DFF88490D3
:1010400039E0DFF8849036E01D48001F006800F0AA
:101050003F041B48001F006800F4800078B11A4864
:101060001749091F0968C1F38811A0FB01700146E7
:10107000224600233846FFF7A3F805460EE0114844
:101080000F49091F0968C1F38811A0FB01700146CF
:10109000224600233846FFF793F805460848001F0C
:1010A0000068C0F30140401C4600B5FBF6F902E0C1
:1010B000DFF8109000BF00BF4846BDE8F087000091
:1010C000083802400024F40000127A00F8B5044603
:1010D0000CB90120F8BD207800F00100002874D080
:1010E000F948006800F00C0004280DD0F6480068AC
:1010F00000F00C00082813D1F348001F006800F42A
:101100008000B0F5800F0BD1EF4808380068C0F3BD
:101110004040002859D06068002856D10120D9E706
:1011200000BF6068B0F5803F08D1E7480838006824
:1011300040F48030E449083908601EE06068B0F58A
:10114000A02F0DD1E0480838006840F48020DE4927
:10115000083908600846006840F4803008600CE0F8
:10116000D9480838006820F48030D7490839086029
:101170000846006820F48020086000BF606890B1D5
:10118000FFF78EFA054606E0FFF78AFA401B64284F
:1011900001D903209EE7CC4808380068C0F34040DE
:1011A0000028F1D011E0FFF77BFA054606E0FFF7D3
:1011B00077FA401B642801D903208BE7C24808381E
:1011C0000068C0F340400028F1D1207800F0020010
:1011D00002285FD1BC48006800F00C0058B1BA4842
:1011E000006800F00C0008281CD1B748001F0068F8
:1011F00000F48000B0B9B44808380068C0F340007B
:1012000020B1E068012801D0012063E7AE4808382A
:10121000006820F0F800216940EAC100AA490839B5
:10122000086037E0E06800B30120A8490860FFF7D4
:1012300037FA054606E0FFF733FA401B022801D9CA
:10124000032047E7A04808380068C0F340000028A2
:10125000F1D09D480838006820F0F800216940EA84
:10126000C10099490839086014E0002097490860D6
:10127000FFF716FA054606E0FFF712FA401B0228B0
:1012800001D9032026E7904808380068C0F34000E1
:101290000028F1D1207800F0080008282CD16069DE
:1012A000A8B101208A490860FFF7FAF9054606E06F
:1012B000FFF7F6F9401B022801D903200AE782480C
:1012C0006C300068C0F340000028F1D014E000202A
:1012D0007F490860FFF7E4F9054606E0FFF7E0F90B
:1012E000401B022801D90320F4E677486C300068DF
:1012F000C0F340000028F1D1207800F00400042859
:1013000070D1002770483830006800F0805090B9E4
:1013100000BF002000906C483830006840F08050DA
:101320006949383108600846006800F08050009034
:1013300000BF00BF01276748006800F48070B0B9A3
:101340006448006840F4807062490860FFF7A8F9BB
:10135000054606E0FFF7A4F9401B022801D9032047
:10136000B8E65C48006800F480700028F2D000BF46
:10137000A068012808D154486830006840F0010096
:101380005149683108601DE0A06805280DD14E481C
:101390006830006840F004004B4968310860084636
:1013A000006840F0010008600CE0474868300068C1
:1013B00020F001004449683108600846006820F0C8
:1013C0000400086000BFA068A8B1FFF769F90546EE
:1013D00009E0FFF765F9401B41F28831884202D9E4
:1013E000032077E626E0384868300068C0F3400004
:1013F0000028EED013E0FFF753F9054608E0FFF7A9
:101400004FF9401B41F28831884201D9032061E63F
:101410002D4868300068C0F340000028EFD1012F4C
:1014200007D129483830006820F0805026493831EB
:10143000086000BFA069002845D02348006800F07C
:101440000C0008285DD0A069022845D100201F4962
:101450000866FFF725F9054606E0FFF721F9401B6E
:10146000022801D9032035E6174808380068C0F380
:1014700040600028F1D1D4E907010843616A40EADD
:1014800081110122A06AC2EB500041EA00412C20E8
:10149000005D41EA00600C49091F086001200B490A
:1014A0000866FFF7FDF8054606E0FFF7F9F8401B70
:1014B000022801D903200DE6034808380068C0F36C
:1014C00040600028F1D049E008380240000047425F
:1014D000800E474200700040002021490866FFF757
:1014E000DFF8054606E0FFF7DBF8401B022801D9CC
:1014F0000320EFE51B480068C0F340600028F2D1EC
:101500002CE0A069012800D1E4E51648001D06681A
:10151000A069012820D006F48001E06981421BD136
:1015200006F03F01206A814216D147F6C070304074
:10153000616AB0EB811F0FD106F440310122A06A2D
:10154000C2EB5000B1EB004F06D106F070612C20C9
:10155000005DB1EB006F01D00120BBE50020B9E5D3
:101560000000474200380240042808D14FF0E02133
:10157000096941F004014FF0E022116107E04FF0EA
:10158000E021096921F004014FF0E0221161704768
:1015900070B504462546681EB0F1807F01D3012056
:1015A0000FE0681E4FF0E02148610F214FF0FF303F
:1015B00001F0AAF900204FF0E021886107200861BE
:1015C000002070BD704770472DE9F84F0446206831
:1015D00005682068C668206847694FF00009CA4658
:1015E00005F00F09B9F1000F0AD105F0200038B15C
:1015F00006F0200020B1204600F02EFFBDE8F88F55
:10160000B9F1000F7CD007F0010018B906F4907012
:10161000002875D005F0010030B106F4807018B1D3
:10162000206C40F00100206405F0040030B107F0A8
:10163000010018B1206C40F00200206405F00200A7
:1016400030B107F0010018B1206C40F004002064B4
:1016500005F0080048B106F0200010B907F00100BD
:1016600018B1206C40F008002064206C002846D09F
:1016700005F0200028B106F0200010B1204600F04F
:10168000EBFE20684069C0F3801A206C00F008006F
:1016900010B9BAF1000F2DD0204600F097FE206857
:1016A000406900F04000402820D100BF00BF216801
:1016B000143151E8001F21F040002168143141E845
:1016C0000002002AF3D100BFA06B50B17548A16B96
:1016D0000865A06BFEF7ACFE88B1A06B016D884772
:1016E0000DE02046FFF76FFF09E009E02046FFF715
:1016F0006AFF04E02046FFF766FF002020647DE7D4
:10170000206B012876D105F01000002872D006F079
:1017100010000028FAD000BF002000902068006868
:10172000009020684068009000BF00BF20684069BA
:1017300000F0400040285ED1A06B006840681FFAAE
:1017400080F8B8F1000F54D0A08D404551DDA4F8C9
:101750002E80A06BC069B0F5807F43D000BF00BF72
:1017600021680C3151E8001F21F4807021680C3190
:1017700041E80002002AF3D100BF00BF00BF21688A
:10178000143151E8001F21F001002168143141E8B3
:101790000002002AF3D100BF00BF00BF216814314E
:1017A00051E8001F21F040002168143141E8000297
:1017B000002AF3D100BF202084F83E0000202063DF
:1017C00000BF00BF21680C3151E8001F21F010005C
:1017D00021680C3141E80002002AF3D100BFA06B60
:1017E000FEF7D0FDA08DE28D801A81B22046FFF772
:1017F000E9FE03E740E0A08DE18D401A1FFA80F872
:10180000E08DC0B3B8F1000F35D000BF00BF216834
:101810000C3151E8001F21F4907021680C3141E82F
:101820000002002AF3D100BF00BF00BF21681431BD
:1018300051E8001F21F001002168143141E8000245
:10184000002AF3D100BF202084F83E00002020634E
:1018500000BF00BF21680C3151E8001F21F01000CB
:1018600021680C3141E80002002AF3D100BF414653
:101870002046FFF7A7FEC1E605F0800030B106F074
:10188000800018B1204600F09EFFB7E605F040004A
:1018900030B106F0400018B1204600F0CDFDADE6B5
:1018A00000BFABE6B923000810B504460CB901200F
:1018B00010BDA06900B100E000BF94F83D0028B958
:1018C000002084F83C00204600F028F8242084F80A
:1018D0003D002068C06820F400502168C8602046A0
:1018E00000F036FE2068006920F49040216808610D
:1018F0002068406920F02A00216848612068C0689B
:1019000040F400502168C86000202064202084F842
:101910003D0084F83E000020CAE7000010B586B004
:10192000044600BF002005901C48006840F00100FC
:101930001A4908600846006800F00100059000BFE1
:1019400000BF00BF0020059014481430006840F02C
:1019500010001249143108600846006800F01000B9
:10196000059000BF00BF0E492068884213D11421A2
:1019700001A8FEF75DFC4FF4C060019002200290C8
:1019800000200390032004900720059001A905483A
:10199000FEF784FD00BF06B010BD000030380240E5
:1019A000001001400000024070B504460D46164686
:1019B00094F83E00202816D105B10EB9012070BD63
:1019C00000BF94F83C00012801D10220F7E7012074
:1019D00084F83C0000BF00202063324629462046A0
:1019E00000F0CCFEEBE70220E9E7000010B504466A
:1019F0001A492068884230D119480078992803D0C4
:101A000018480078012828D1012016490870144888
:101A10000078552804D100200870134908801CE084
:101A20000F480078552818D00E480078012814D1A6
:101A30000B4800780D490C4A128888540A480088DF
:101A4000401C0949088008460088C72805DD002099
:101A50000749087007A000F03FFF10BD0044004098
:101A60001E000020180000201C00002000010020A3
:101A70001A000020E68EA5E694B6E588B0E79A84C1
:101A8000E695B0E68DAEE5AEB9E9878FE5A4A7E4AB
:101A9000BA8EE68C87E5AE9AE5AD98E582A8E7A90F
:101AA000BAE997B4E79A84E5A4A7E5B08FEFBC81C3
:101AB0000D0A00002DE9F84F04460E4617469946D8
:101AC0004FF0000A94F83D0020285AD106B117B90A
:101AD0000120BDE8F88F00BF94F83C00012801D137
:101AE0000220F6E7012084F83C0000BF00202064BB
:101AF000212084F83D00FEF7D3FD8246A784E784C9
:101B0000A068B0F5805F04D1206910B90025B04607
:101B100002E035464FF0000800BF002084F83C008A
:101B200000BF1BE05346002280212046CDF80090E4
:101B300000F079FE08B10320CBE745B9B8F8000002
:101B4000C0F308002168486008F1020803E0287823
:101B5000216848606D1CE08C401EE084E08C002809
:101B6000E0D15346002240212046CDF8009000F0FD
:101B70005AFE08B10320ACE7202084F83D00002085
:101B8000A7E70220A5E7704700BFFEE700B587B0D2
:101B900000BF002001902A48006840F00200284958
:101BA00008600846006800F00200019000BF00BF16
:101BB000142102A8FEF73CFB122003908020029023
:101BC00000200490032005900420069002A91D48DF
:101BD000FEF764FC12200390402002900020049045
:101BE000042006900320059002A91648FEF756FC33
:101BF00000BF0020019012481030006840F400102F
:101C00000F49103108600846006800F40010019088
:101C100000BF00BF0C480D49086001140B4801616A
:101C20000B480A4948600021084841618160C16150
:101C30000162C1608161FEF739FD07B000BD00009F
:101C400030380240000402400054004024000020CC
:101C5000A0860100014608684069C0F38020B0B149
:101C60006FF480600A68506100200863202081F8CA
:101C70003D00002081F83E00086C40F0040008643C
:101C800000BF002081F83C0000BF01207047002009
:101C9000FCE700002DE9F84304460F461546994637
:101CA000DDE908862068006840F4806021680860EB
:101CB0002068006840F48070216808604346002274
:101CC0004FF001112046009600F032F960B1206813
:101CD000006800F48070B0F5807F02D14FF400708E
:101CE00020640320BDE8F88307F0FE002168086146
:101CF000334642463E49204600F05DF908B10120D6
:101D0000F0E700BF00200090206840690090206844
:101D10008069009000BF00BF32464146204600F077
:101D2000ECF950B1206C042805D12068006840F41B
:101D30000070216808600120D4E7B9F1010F03D1D8
:101D4000E8B22168086117E0C5F30720216808613F
:101D500032464146204600F0D0F950B1206C0428AC
:101D600005D12068006840F40070216808600120F7
:101D7000B8E7E8B22168086132464146204600F0E3
:101D8000BCF950B1206C042805D12068006840F4EB
:101D90000070216808600120A4E72068006840F412
:101DA000807021680860434600224FF001112046F0
:101DB000009600F0BDF858B12068006800F480700B
:101DC000B0F5807F02D14FF400702064032089E7D2
:101DD000F8B240F0010021680861334642460449E8
:101DE000204600F0E8F808B101207BE7002079E701
:101DF000020001002DE9F84304468846154699463D
:101E0000DDE908672068006840F480702168086098
:101E1000334600224FF001112046009700F088F869
:101E200060B12068006800F48070B0F5807F02D156
:101E30004FF4007020640320BDE8F88308F0FE0032
:101E4000216808613B4632462149204600F0B3F83C
:101E500008B10120F0E700BF002000902068406931
:101E6000009020688069009000BF00BF3A4631466C
:101E7000204600F042F950B1206C042805D12068BA
:101E8000006840F40070216808600120D4E7B9F1CF
:101E9000010F03D1E8B22168086117E0C5F30720FC
:101EA000216808613A463146204600F026F950B1D3
:101EB000206C042805D12068006840F40070216877
:101EC00008600120B8E7E8B2216808610020B3E7A4
:101ED0000200010070B504460D46164620E020467B
:101EE000FFF7B8FE08B1012070BD681CC0B1FEF755
:101EF000D7FB801BA84200D895B900202063202082
:101F000084F83D00002084F83E00206C40F0200062
:101F1000206400BF002084F83C0000BF0120E3E7FC
:101F200020684069C0F380000028D8D00020DBE79B
:101F30002DE9F04104460D4617461E46DDF818808F
:101F40001CE0701CD0B1FEF7ABFBA0EB0800B04268
:101F500000D89EB900202063202084F83D00002096
:101F600084F83E00206C40F02000206400BF002078
:101F700084F83C0000BF0120BDE8F081C5F30740B4
:101F800001280AD120684069A9B20840A9B2884254
:101F900001D101200BE0002009E020688069A9B28E
:101FA0000840A9B2884201D1012000E00020B842D7
:101FB000C7D00020E0E72DE9F04104460D46164663
:101FC0001F463DE020684069C0F38020E8B12068EA
:101FD000006840F40070216808606FF48060216838
:101FE000486100202063202084F83D00002084F810
:101FF0003E00206C40F00400206400BF002084F804
:102000003C0000BF0120BDE8F081701CC0B1FEF7AC
:1020100047FBC01BB04200D896B9002020632020A7
:1020200084F83D00002084F83E00206C40F0200041
:10203000206400BF002084F83C0000BF0120E2E7DC
:10204000C5F3074001280AD120684069A9B20840B9
:10205000A9B2884201D101200BE0002009E02068EC
:102060008069A9B20840A9B2884201D1012000E0EC
:1020700000200028A6D00020C5E770B504460D4614
:10208000164632E020684069C0F30010A0B16FF03E
:1020900010002168486100202063202084F83D0062
:1020A000002084F83E00206C206400BF002084F8EB
:1020B0003C0000BF012070BDFEF7F2FA801BA84271
:1020C00000D895B900202063202084F83D0000202E
:1020D00084F83E00206C40F02000206400BF002007
:1020E00084F83C0000BF0120E5E720684069C0F3A8
:1020F00080100028C6D00020DDE770B504460D46EC
:10210000164620E02046FFF7A5FD08B1012070BD6E
:10211000681CC0B1FEF7C4FA801BA84200D895B96C
:1021200000202063202084F83D00002084F83E0039
:10213000206C40F02000206400BF002084F83C00A8
:1021400000BF0120E3E720684069C0F3C010002809
:10215000D8D00020DBE7000000B587B000BF00202A
:1021600001901D48006840F002001B4908600846C5
:10217000006800F00200019000BF00BF0520FEF7DC
:102180004BFE002211461720FEF707FE1720FEF730
:10219000F4FD142102A8FEF74BF84FF4041003904D
:1021A0004FF400700290012004900220059002A9D3
:1021B0000A48FEF773F94FF4041003904FF480704F
:1021C0000290012004900220059002A90348FEF726
:1021D00065F907B000BD000030380240000402403D
:1021E00000BFFEE770477047704710B5FEF774FDFB
:1021F00010BD000000B593B0302107A8FEF718F815
:10220000142102A8FEF714F800BF00200190254811
:10221000006840F08050234908600846006800F0DC
:102220008050019000BF00BF00BF002001901E48F9
:10223000006840F480401C4908600846006800F4CB
:102240008040019000BF00BF4FF480300890012013
:10225000079002200D9041050E9104210F91A821B5
:102260001091022111910421129100BF07A8FEF7DD
:102270002DFF0028FAD104904FF4A05005904FF4A0
:10228000805006900F2002900220039000BF05218D
:1022900002A8FEF7D5FD0028F9D1FEF793FE13B092
:1022A00000BD000040380240007000400348006854
:1022B00040F47000014908607047000088ED00E0BC
:1022C00010B50446084809490860084644600021E2
:1022D0000161C16081600C21416100218161C161A6
:1022E000FFF7E2FA10BD0000001001407800002066
:1022F00010B586B004462B482B4908600846446058
:1023000000210161C16081600C2141610021816176
:10231000C16100BF002000902448006840F0010027
:10232000224908600846006800F00100009000BFE4
:1023300000BF00BF002000901C481030006840F42F
:1023400000301A49103108600846006800F4003077
:10235000009000BF00BF142101A8FDF769FF0C2009
:102360000190022002900020039003200490072097
:10237000059001A90E48FEF791F80520FEF74CFDE7
:10238000002211462620FEF708FD2620FEF7F5FC68
:102390000548FFF789FA012206490348FFF704FBC5
:1023A00006B010BD00440040BC00002030380240A0
:1023B000000002401E00002070B50546AC6B0020F6
:1023C000E085E0842046FFF7FEF870BD00BF00BF47
:1023D00002680C3252E8002F22F4907102680C322D
:1023E00042E80013002BF3D100BF00BF00BF02681A
:1023F000143252E8002F22F001010268143242E840
:102400000013002BF3D100BF016B01290ED100BFD7
:1024100000BF02680C3252E8002F22F0100102685F
:102420000C3242E80013002BF3D100BF202180F8CA
:102430003E1000210163704710B504462068C06853
:1024400020F040002168C860202084F83D0020462C
:10245000FFF799FB002010BDF8B5044694F83E0044
:10246000222873D1A068B0F5805F0CD1206950B9E3
:102470000025A66A20684068C0F308003080A06A82
:10248000801CA06215E0A56A0026A068B0F5805FF8
:1024900003D0A06828B9206918B92068406828705E
:1024A00004E02068406800F07F002870A06A401CAB
:1024B000A062E08D401E80B2E085002844D12068F3
:1024C000C06820F020002168C8602068C06820F43F
:1024D00080702168C8602068406920F00100216890
:1024E0004861202084F83E00206B012826D100207E
:1024F000206300BF00BF21680C3151E8001F21F0AC
:10250000100021680C3141E80002002AF3D100BF1D
:102510002068006800F0100010280AD100BF0020D9
:10252000009020680068009020684068009000BF1C
:1025300000BFA18D2046FFF745F802E02046FFF7D7
:1025400055FA0020F8BD01E00020FBE70220F9E782
:102550002DE9F84F04462068006920F44050E168F6
:102560000843216808612169A0680843616908433C
:10257000E169084300902068C06849F20C61884313
:10258000009908432168C8602068406920F44070C1
:10259000A16908432168486176492068884203D0D0
:1025A00075492068884203D1FEF728FD814602E084
:1025B000FEF714FD8146E069B0F5004F6CD10220B2
:1025C0006168A0FB015003461920A9FB0070014679
:1025D0002A463846FDF7F4FD6421B0FBF1F04FEADE
:1025E000001A02206168A0FB01510B461920A9FBCB
:1025F00000712A463846FDF7E3FD834602206168F4
:10260000A0FB015003461920A9FB00712A46384659
:10261000FDF7D6FD6421B0FBF1F000EBC00101EB4A
:102620000010ABEB8000322101EBC0006421B0FB55
:10263000F1F000F0F8000AEB400A02206168A0FB0C
:10264000015003461920A9FB007001462A4638466E
:10265000FDF7B6FD834602206168A0FB01500346EA
:102660001920A9FB00712A463846FDF7A9FD64210F
:10267000B0FBF1F000EBC00101EB0010ABEB800010
:10268000322101EBC0006421B0FBF1F000F0070043
:102690005044216888606AE004206168A0FB015012
:1026A00003461920A9FB007001462A463846FDF76B
:1026B00087FD824604206168A0FB01500346192073
:1026C000A9FB007001462A463846FDF779FD6421D2
:1026D000B0FBF1F000EBC00101EB0010AAEB8000B1
:1026E000322101EB00106421B0FBF1F000F0F00AA0
:1026F00004206168A0FB017003461920A9FB00516A
:102700003A462846FDF75CFD6421B0FBF1F00AEB88
:10271000001A04206168A0FB01510B461920A9FB97
:1027200000712A463846FDF74BFD83460420616858
:10273000A0FB015003461920A9FB007001462A4660
:102740003846FDF73DFD6421B0FBF1F000EBC00120
:1027500001EB0010ABEB8000322101EB0010642193
:10276000B0FBF1F000F00F00504421688860BDE834
:10277000F88F0000001001400014014010B503461E
:1027800099629A85DA8500201864222083F83E0039
:1027900000BF002083F83C0000BF186928B118680A
:1027A000C06840F480701C68E0601868406940F0C0
:1027B00001001C6860611868C06840F020001C6857
:1027C000E060002010BD014691F83D00212828D18D
:1027D0008868B0F5805F0BD1086948B90A6A10882B
:1027E000C0F308000B685860086A801C086205E0A6
:1027F0000B6A581C086218780B685860C88C401E19
:1028000080B2C88458B90868C06820F080000B689E
:10281000D8600868C06840F040000B68D8600020AD
:1028200070470220FCE72DE9F04104460D461746AB
:102830009846069E34E0701C88B32EB1FDF730FF39
:10284000A0EB0800B0422BD900BF00BF21680C31BB
:1028500051E8001F21F4D07021680C3141E80002DA
:10286000002AF3D100BF00BF00BF2168143151E836
:10287000001F21F001002168143141E80002002A04
:10288000F3D100BF202084F83D0084F83E0000BF53
:10289000002084F83C0000BF0320BDE8F081FFE782
:1028A000206800682840A84201D1012000E00020F3
:1028B000B842C0D00020F0E710B50448FEF784FE0F
:1028C000012203490148FFF76FF810BDBC0000204A
:1028D0001E00002000BFFEE70FB4054B10B503A992
:1028E000044A029800F034F810BC5DF814FB0000B4
:1028F000112C00082000002002480068C0F30220CC
:10290000704700000CED00E010B5002804DB0A075A
:10291000130E054A135406E00A07140E034A00F08A
:102920000F031B1FD45410BD00E400E018ED00E0BD
:1029300002E008C8121F08C1002AFAD17047704788
:10294000002001E001C1121F002AFBD170470000E6
:102950002DE9FF4F8DB09B460F460446002606E04A
:1029600025280BD05A460F999047641C761C207876
:102970000028F5D111B03046BDE8F08F0025A846FB
:102980000122984900E0054314F8013F203B02FA78
:1029900003F00842F7D120782E2817D114F8010F40
:1029A00045F004052A280ED06FF02F022078A0F100
:1029B000300109290AD808EB880102EB410100EB3C
:1029C0000108641CF2E757F8048B641C20786C281B
:1029D0000DD004DC4C2812D06A2811D104E07428F0
:1029E0000DD07A280CD10AE045F4001507E0617893
:1029F00045F48015814202D1641C05F58015641CE4
:102A00002278692A45D008DC002AB3D0582A69D038
:102A1000632A10D0642A08D13BE0702A67D0732A59
:102A200013D0752A5CD0782A5CD010465A460F998C
:102A30009047761CD3E017F8040B8DF800000020B7
:102A40008DF80100E946012003E057F8049B4FF0A0
:102A5000FF3069074FF0000501D40AE06D1C4545C1
:102A60000DDA8542FADB19F805100029F6D106E0E7
:102A70006D1C8542FCDB19F805100029F8D12E44A5
:102A800004E019F8010B5A460F9990476D1EF8D2D1
:102A9000A5E00A200021CDE90801C5F30250022873
:102AA0000DD001CFC117031E71F100030DDA4FF0F5
:102AB000000CD0EB0C006CEB01012D2308E0FF1D96
:102AC00027F00707F7E80201EDE72B0504D52B23D4
:102AD0008DF8283001233BE0EB0739D02023F7E7BE
:102AE0000A2000E010200021CDE9080107E01020B5
:102AF000002145F00405CDE908014FF00808C5F3B1
:102B0000025002280FD001CF00214FF0000A2B07FE
:102B10001FD5702A0DD0DDE908C38CF0100C5CEADB
:102B2000030C0CD015E0FF1D27F00707F7E80201A2
:102B3000EBE740228DF828204FF0010A0BE050EA25
:102B4000010306D030238DF828308DF82920022388
:102B50009A46582A04D024A20DF120090B9209E0CC
:102B600026A2F9E7DDE90823FDF72AFB0B9B9B5C16
:102B700009F8013D50EA0102F4D1ADEB0900203023
:102B80000890680701D44FF001080899884502DDD4
:102B9000A8EB010000E000208046002506E00AA81E
:102BA0005A46405D0F9990476D1C761C5545F6DBE3
:102BB00004E030205A460F999047761CB8F1000186
:102BC000A8F10108F5DC05E019F8010B5A460F9948
:102BD0009047761C0899481E08900029F4DC641C74
:102BE000C5E600000928010030313233343536376C
:102BF0003839616263646566000000003031323349
:102C000034353637383941424344454600000000E8
:102C100013B50C464FF47A73012269460648FEF755
:102C200049FF00BF044800680068C0F38010002816
:102C3000F8D000981CBD0000BC00002086B0002029
:102C400005900490002400250026039000BF00BFDB
:102C50000290019000BF00BF00278046FEF748F8B1
:102C6000FFF7C8FAA820FDF74BFB4FF41650FFF70B
:102C700027FB4FF4E130FFF73BFB63A0FFF72CFE8F
:102C8000FFF76AFAFEF782FF00BF02A90020FDF7F6
:102C90000DFB01A90120FDF709FB03A90220FDF7A7
:102CA00005FB0A20FDF73CFB5C4840780128ECD08E
:102CB0009DF80C105AA0FFF70FFE9DF804105DA0C0
:102CC000FFF70AFE9DF808105FA0FFF705FE9AE0E7
:102CD00002A90020FDF7EAFA01A90120FDF7E6FAB2
:102CE00003A90220FDF7E2FA0A20FDF719FB9DF87F
:102CF0000C00844204D09DF80C1049A0FFF7ECFDB5
:102D00009DF80400854204D09DF8041049A0FFF707
:102D1000E3FD9DF80800864204D09DF808104AA003
:102D2000FFF7DAFD9DF80C409DF804509DF808600F
:102D30004A480078012824D141024948FDF7A8FCFF
:102D4000F8B94FF400714648FDF7A2FCC8B9C7B9FD
:102D500001279DF81400401EC0B2059005A900206F
:102D6000FDF7B8FA0A20FDF7DBFA04A90020FDF709
:102D70009DFA0A20FDF7D4FA9DF8101039A0FFF74C
:102D8000ABFD3E480078012827D101023448FDF709
:102D90007FFC10BB4FF480713148FDF779FCE0B93E
:102DA000B8F1000F19D14FF001089DF81400401C34
:102DB000C0B2059005A90020FDF78CFA0A20FDF7A6
:102DC000AFFA04A90020FDF771FA0A20FDF7A8FA6E
:102DD0009DF8101023A0FFF77FFD4FF400712048ED
:102DE000FDF756FC012803D100201C49087000277C
:102DF0004FF480711A48FDF74BFC012803D10020E5
:102E00001E490870804663E777656C636F6D6520C7
:102E1000746F206D6375210D0A0000000001002011
:102E20006D61696E2E6E302E76616C3D2578FFFFE8
:102E3000FF0000006D61696E2E6E312E76616C3D73
:102E40002578FFFFFF0000006D61696E2E6E322E47
:102E500076616C3D2578FFFFFF0000001400002024
:102E600000040240E58699E585A5E79A84E580BCE3
:102E7000E4B8BA3A25640D0A0000000015000020ED
:102E8000000000000000000001020304060708091A
:102E90000000000001020304B82E0008000000201A
:102EA0002400000030290008DC2E00082400002047
:102EB000A4050000402900080024F40000000000E0
:102EC00010000000010000000000000000000000F1
:0C2ED000000000000000000000000000F6
:040000050800018965
:00000001FF
