:020000040800F2
:10000000B80400209D0100083717000851120008AD
:1000100035170008D50200088F19000800000000FD
:100020000000000000000000000000003B17000876
:10003000D702000800000000391700083D1700082B
:10004000B7010008B7010008B7010008B7010008B0
:10005000B7010008B7010008B7010008B7010008A0
:10006000B7010008B7010008B7010008B701000890
:10007000B7010008B7010008B7010008B701000880
:10008000B7010008B7010008B7010008B701000870
:10009000B7010008B7010008B701000871030008A4
:1000A000B7010008B7010008B7010008B701000850
:1000B000B7010008B7010008B7010008B701000840
:1000C000B7010008B7010008B7010008B701000830
:1000D000B7010008B7010008B7010008B701000820
:1000E000B7010008B7010008B7010008B701000810
:1000F000B7010008B7010008B7010008B701000800
:10010000B7010008B7010008B7010008B7010008EF
:10011000B7010008B7010008B7010008B7010008DF
:10012000B7010008B7010008B7010008B7010008CF
:10013000B7010008B7010008B7010008B7010008BF
:10014000B7010008B7010008B7010008B7010008AF
:10015000B7010008B7010008B7010008B70100089F
:10016000B7010008B7010008B7010008B70100088F
:10017000B7010008B7010008B7010008000000003F
:10018000B7010008B7010008DFF80CD000F090F8C4
:1001900000480047691B0008B80400200648804753
:1001A00006480047FEE7FEE7FEE7FEE7FEE7FEE75C
:1001B000FEE7FEE7FEE7FEE7D51700088901000825
:1001C0002DE9F05F0546002092469B46884606468C
:1001D000814640241BE0284641464746224600F01F
:1001E00057F853465A46C01A914110D31146184643
:1001F000224600F03EF82D1A67EB01084F462246D2
:100200000120002100F035F817EB00094E41201EB7
:10021000A4F10104DFDC484631462A464346BDE8E6
:10022000F09FD2B201E000F8012B491EFBD27047CB
:100230000022F6E710B513460A4604461946FFF7B2
:10024000F0FF204610BD30B50B46014600202022AD
:10025000012409E021FA02F59D4205D303FA02F5D3
:10026000491B04FA02F52844151EA2F10102F1DC33
:1002700030BD202A04DB203A00FA02F1002070474A
:100280009140C2F1200320FA03F3194390407047D4
:10029000202A04DB203A21FA02F00021704721FADB
:1002A00002F3D040C2F12002914008431946704742
:1002B000064C074D06E0E06840F0010394E80700B3
:1002C00098471034AC42F6D3FFF762FF241D0008B4
:1002D000441D0008FEE7704710B54FF0E0220021F2
:1002E00004461161084600F0D5FE1520B4FBF0F07D
:1002F0000149086010BD0000040000200B49096896
:1003000048434FF47A7148434FF0E021486100239D
:100310008B61086940F0010008610869C20701D0DB
:10032000C003FAD5086908618B617047040000209A
:100330003EB54FF47A7300910124CDE901430246A2
:100340002346A121014800F0F1F93EBD1C00002028
:100350003EB54FF47A7300910124CDE90143024682
:100360002346A021014800F0DDFA3EBD1C0000201C
:1003700010B54FF4007000F015F8BDE810404FF4D0
:10038000807000F00FB8000001220549B0F5807FB1
:1003900004D0B0F5007F00D10A7070474A707047F2
:1003A00008000020044910B50A68024202D0086023
:1003B000FFF7EAFF10BD0000143C01402DE9F84FA3
:1003C000DFF89C910022A9F1040B03274FF00F0CDA
:1003D00009F1040AABF1040E01250B6895402B408E
:1003E000AB426ED10C7904F00304012C01D0022C35
:1003F00015D18668540007FA04F826EA0806D1F8F1
:100400000C8008FA04F848EA0608C0F80880446836
:10041000AC430D79C5F300159540254345600C7933
:10042000E443A40708D0C568540007FA04F6B543AE
:100430008E68A6402E43C6600C7904F00304022C9B
:1004400011D1D40800EB8406356A5407E40E0CFA87
:1004500004F825EA0805D1F8108008FA04F848EAFB
:100460000508C6F820800568540007FA04F6B5436D
:100470000E7906F00306A6402E4306604C6814F47D
:10048000403F66D0374C256845F480452560246898
:1004900022F0030504F480440094334C05EB040877
:1004A000D8F808589407260F0CFA06F4A5432F4CE9
:1004B000A04201D1002424E02D4CA04202D101240D
:1004C0001FE046E02B4CA04201D1022419E02A4C47
:1004D000A04201D1032414E0284CA04201D10424FD
:1004E0000FE0274CA04201D105240AE0254CA04290
:1004F00001D1062405E0244CA04201D1072400E0EC
:100500000824B4402C43C8F80848D9F800404D46A8
:100510004E689C43F60200D51C432C60DAF800407C
:1005200055464E689C43B60200D51C432C60DBF850
:1005300000405D464E689C43B60300D51C432C60CA
:10054000DEF8004075464E689C43F60300D51C4318
:100550002C60521C102AFFF43FAFBDE8F88F00005A
:10056000083C014044380240003001400000024095
:100570000004024000080240000C0240001002404B
:100580000014024000180240001C024000690840AC
:1005900000D00120704700000148806870470000CB
:1005A0000C00002070B5040025D094F83D00002513
:1005B00020B984F83C50204600F04CFA242084F8FE
:1005C0003D002068016821F0010101602068016898
:1005D00041F4004101602068016821F4004101609C
:1005E00000F05CFB4D4B6168994201D84C4900E03A
:1005F0004C49884201D2012070BD4B492268B0FBB2
:10060000F1F1566826F03F060E43566062689A4242
:1006100006D94FF4967251434FF47A72B1FBF2F15E
:100620002268491C166A26F03F0631431162616850
:10063000994210D84900401EB0FBF1F2521CC2F39F
:100640000B02042A01D2042022E0B0FBF1F0401C8E
:10065000C0F30B001CE0A268F2B301EBC10303EB93
:100660000116431EB3FBF6F35B1C43F480431B05EA
:1006700049D092B301EBC10202EB0111401EB0FB65
:10068000F1F0401CC0F30B0040F4804040F4004007
:100690002168CA694CF6FF739A431043C861D4E9D4
:1006A000071001432068026822F0C0021143016074
:1006B000D4E9030101432068826848F2FF339A437A
:1006C00011438160D4E9051001432068C26822F01B
:1006D000FF021143C16001E00EE016E020680168EE
:1006E00041F0010101602564202084F83D0025636C
:1006F00084F83E50002070BD01EB4106431EB3FB61
:10070000F6F35B1CB3E70120C2E701EB4101401E99
:10071000B0FBF1F0401CC0F30B00B7E7A08601006E
:1007200080841E0000093D0040420F002DE9FF4F6C
:1007300083B09A46DDE9119793460446DDF8408080
:10074000FFF72AFF054694F83D00202870D11923B1
:10075000012271492046009500F0DCFE0028F5D109
:1007600094F83C00012863D0012084F83C00206804
:100770000168C90703D1016841F0010101602068E7
:10078000016821F400610160222084F83D004020CE
:1007900084F83E0000262664C4F82480A4F82A9039
:1007A000608D20855D48E062CDE9007553465A466C
:1007B0002046049900F0B6FD00287CD1208DD0B1F0
:1007C000012821D00228206824D041698069009046
:1007D000208D032869D801282BD0514902283B4697
:1007E0004FF00002009559D08846204600F092FE56
:1007F000002860D13CE0206841698169009101686E
:1008000041F40071016077E02068016821F48061A3
:100810000160F0E7016821F48061016020680168EF
:1008200041F400610160206841698069009063E0E3
:100830006FE02A463946204600F0ECFE98BB20685F
:100840000069616A08704EE02068016841F4007137
:10085000016020680069616A0870606A401C60621B
:10086000218D491E2185618D491E6185216838E0F1
:100870002068016821F48061016020680069616A74
:100880000870606A401C6062208D401E2085608D6B
:10089000401E60853B46002241460095204600F000
:1008A00039FE00B9D0E706E0FFE72A463946204680
:1008B00000F0B0FE18B1012007B0BDE8F08F20684D
:1008C0000069616A0870606A401C6062218D491E7F
:1008D0002185618D491E618521684A69D24352078D
:1008E0000AD409690170606A401C6062208D401E54
:1008F0002085608D401E6085208D00287FF468AFC4
:10090000202084F83D0084F83E6084F83C6000209C
:10091000D2E70220D0E70000020010000000FFFF35
:10092000040001002DE9FF4F83B09A46DDE91197DD
:1009300093460446DDF84080FFF72EFE054694F806
:100940003D0020287FD119230122404920460095EF
:1009500000F0E0FD002876D194F83C00012872D028
:10096000012084F83C0020680168C90703D10168B0
:1009700041F0010101602068016821F4006101601B
:10098000212084F83D00402084F83E0000262664A3
:10099000C4F82480A4F82A90608D20852C48E06259
:1009A000CDE9007553465A462046049900F038FDBB
:1009B00070B930E02A463946204600F060FE58B152
:1009C000206C042804D12068016841F400710160A2
:1009D000012007B0BDE8F08F606A216800780861E7
:1009E000626A521C6262208D401E80B22085618D39
:1009F000491E618521684B69DB435B070BD468B1F5
:100A000010780861606A401C6062208D401E20855D
:100A1000608D401E6085208D0028CBD12A46394646
:100A2000204600F051FD0028CAD154F83D0B016862
:100A300041F400710160202004F81E09E677667712
:100A40000020C6E7FFE70220C3E700000200100015
:100A50000000FFFF704700000248816802781144DF
:100A6000816070470C0000200B4810B5016841F40C
:100A700000710160016841F480610160016841F426
:100A800080710160032000F057F80F2000F006F895
:100A900000F024F8002010BD003C024070B50D4D60
:100AA00004464FF47A712878B1FBF0F00A490968DE
:100AB000B1FBF0F000F0FAFA48B9102C07D200228E
:100AC0002146501E00F018F800206C6070BD012017
:100AD00070BD00000C0000200000002070470028BE
:100AE00009DB00F01F02012191404009800000F164
:100AF000E020C0F800117047F0B40E4B1B68C3F340
:100B00000223C3F10704042C00D904241D1D072D62
:100B100001D2002300E0DB1E012606FA04F56D1E5B
:100B20000D409D409E40761E164045EA0601F0BCF1
:100B300000F03EBF0CED00E0064A00F0070110682F
:100B40004FF6FF03184040EA0120034908431060B4
:100B5000704700000CED00E00000FA052DE9F047B9
:100B60000D46040065D0DFF81491D9F80000EFB20B
:100B700000F00700A84207D289F80070D9F80000F9
:100B800000F00700A84254D120683D4E810712D5DD
:100B9000400703D5306840F4E0503060207800070B
:100BA00003D5306840F4604030603068A16820F0C0
:100BB000F000084330602078C0072DD030496068CD
:100BC0000839012812D0022813D0032811D009684F
:100BD000890700292DDA316821F0030101433160D2
:100BE000FFF7DAFC804641F2883A0EE00968890393
:100BF000EFE709688901ECE7FFF7CEFCA0EB0801FD
:100C0000514502D90320BDE8F0873068616800F0E3
:100C10000C00B0EB810FEFD1D9F80010484601F07D
:100C20000701A94207D90770006800F00700A84231
:100C300001D00120E7E72078400705D53068E1685A
:100C400020F4E050084330602078000706D5306873
:100C5000216920F4604040EAC100306000F03EF8B5
:100C60003168084AC1F30311515CC8400649086065
:100C700006480068FFF712FF0020C4E7003C02406E
:100C8000083802400C1D0008000000201000002061
:100C900001490120C86470470000474204480549E3
:100CA00000680968044AC1F38221515CC84070475A
:100CB00000000020083802401C1D000804480549B7
:100CC00000680968044AC1F34231515CC84070476A
:100CD00000000020083802401C1D0008154810B50F
:100CE000006810F00C01144813D0431004290FD0F1
:100CF00008290ED10F4C241F216801F03F02216802
:100D0000490207D52068C0F38810A0FB030106E064
:100D1000184610BD2168C1F38811A1FB0001002312
:100D2000FFF74EFA2168C1F30141491C4900B0FBAD
:100D3000F1F010BD083802400024F4002DE9F84F0E
:100D4000040075D02078DFF838A3C007AAF10405A5
:100D500048D00AF104000168C1F38101012908D0DB
:100D60000068C0F3810002280AD1DAF800004002CE
:100D700006D52868800335D560680028E1D031E0C9
:100D80006068B0F5803F10D0B0F5A02F286810D073
:100D900020F480302860286820F480202860606873
:100DA000A0B1FFF7F9FB06460CE0286840F480305C
:100DB000F4E740F480202860F7E7FFF7EDFB801BA5
:100DC000642871D828688003F7D50BE0FFF7E4FBAF
:100DD000064604E0FFF7E0FB801B6428F1D8286892
:100DE0008003F7D42078DFF89C9280074FF0000B47
:100DF0003DD5A348001D016811F00C0F08D0006814
:100E0000C0F3810002280AD1DAF80000400206D4BB
:100E10002868800715D5E068012809D111E0E0684D
:100E2000B8B10120C9F80000FFF7B6FB064605E09F
:100E300022E1FFF7B1FB801B0228C2D82868800797
:100E4000F7D52868216920F0F80040EAC100286041
:100E50000DE0C9F800B0FFF79FFB064604E0FFF77E
:100E60009BFB801B02281FD828688007F7D42078B6
:100E7000000722D5824F84486169703771B1012122
:100E80000160FFF789FB064604E0FFF785FB801B46
:100E9000022809D838688007F7D50EE0C0F800B0FE
:100EA000FFF77AFB064605E082E0FFF775FB801B43
:100EB00002287DD838688007F7D42078400765D5A8
:100EC0006F484FF000083C300068C0000BD46C48FD
:100ED0003C30016841F08051016000684FF001082A
:100EE00000F080500090694F3868C0050FD4386812
:100EF00040F480703860FFF74FFB064604E0FFF7D0
:100F00004BFB801B022853D83868C005F7D55C4FCF
:100F1000A0686C3701280FD00528386810D020F061
:100F200001003860386820F004003860A068B0B173
:100F3000FFF732FB06460EE0386840F00100F4E7A8
:100F400040F004003860F7E7FFF726FB811B41F211
:100F50008830814263D838688007F5D50DE0FFF707
:100F60001BFB064606E0FFF717FB811B41F28830AA
:100F7000814254D838688007F5D4B8F1000F05D005
:100F80003F483C30016821F080510160A069B8B34E
:100F90003B49091D0968C1F38101022946D0022895
:100FA000584606D0C9F86000FFF7F6FA044639E063
:100FB00035E04F46C9F86000FFF7EEFA064604E058
:100FC000FFF7EAFA801B022829D828688001F7D4A5
:100FD000D4E907010843A16A2D4A490802EB0141FF
:100FE000626A41EA8211084394F82C1040EA0161D8
:100FF000CAF8001001203866FFF7CEFA044605E073
:101000003CE0FFF7C9FA001B022808D828688001D5
:10101000F7D533E0FFF7C0FA001B022802D90320FE
:10102000BDE8F88F28688001F4D427E00128F7D0C4
:10103000DAF80000E26900F4800191421CD1226AD2
:1010400000F03F01914217D147F6C071626A01403A
:10105000B1EB821F10D1A26A4FF0FF3300F4403190
:1010600003EB5202B1EB024F06D194F82C1000F0C2
:101070007060B0EB016F01D00120D1E70020CFE715
:101080000438024000004742800E47420070004092
:101090000000FFFF4FF0E0210428086903D020F092
:1010A00004000861704740F00400FAE710B5401EE4
:1010B000B0F1807F01D3012010BD4FF0E0246061CA
:1010C0000F21601700F074FC0020A0610720206150
:1010D000002010BD70B5040004D094F83D00002538
:1010E00010B106E0012070BD84F83C50204600F0AD
:1010F00023F8242084F83D002068C16821F40051C1
:10110000C160204600F082FB2068016921F4904113
:1011100001612068416921F02A0141612068C168AC
:1011200041F40051C1602564202084F83D0084F81A
:101130003E00002070BD000010B5164986B00024A6
:101140000A6842F001020A60096801F00101009199
:10115000104914310A6842F010020A60096801F06F
:101160001001009100680C49884211D11421684691
:10117000FFF75EF84FF4C06000900220CDE9010453
:10118000032003900720049069460448FFF716F9EE
:1011900006B010BD3038024000100140000002408F
:1011A0002DE9F843044690F83D001F4615460E46CB
:1011B00020284BD1C6B1BDB194F83C00012845D0E0
:1011C000012084F83C004FF00008C4F84080212042
:1011D00084F83D00FFF7E0F9A5848146E584A06826
:1011E000B0F5805F03D004E00120BDE8F8832069FA
:1011F00020B13546002684F83C800EE00025FAE751
:101200008021204600F088FBA0B9ADB115F8010B94
:1012100021684860E08C401EE084E08C4B464FF033
:10122000000200970028EBD14FF04001204600F06B
:1012300073FB30B10320D8E736F8020BC0F3080087
:10124000E6E7202084F83D000020CEE70220CCE72E
:10125000FEE700002DE9F041214886B00024016836
:1012600041F0020101600068142100F002000590C5
:101270006846FEF7DDFF122680200327CDE9000631
:10128000DFF86080CDE902470425694604954046B1
:10129000FFF794F84020CDE90006CDE90247694602
:1012A00004954046FFF78AF80D481030016841F474
:1012B0000011016000680C4900F4001005900B4813
:1012C0000160091401610A494461C0E90114C46163
:1012D0000462C4608461FFF765F906B0BDE8F0817F
:1012E0003038024000040240005400401C0000203E
:1012F000A086010001684A69D24352050FD46FF4F9
:1013000080624A61002140F8301F202242738173BD
:10131000026942F00402026101730120704700205B
:10132000704700002DE9F84F0446006889460B9E7F
:1013300001689846174641F48061016020680168A1
:1013400041F48071016000964FF0011B0022594664
:1013500020460A9B00F0DEF84FF4007A40B1206886
:101360000068C00501D5C4F840A00320BDE8F88F8F
:10137000216809F0FE0008613346284920460A9A90
:1013800000F0FCF8F0BB20684169806900903246AB
:1013900020460A9900F073F940B1206C04283AD134
:1013A0002068016841F40071016034E0FDB2B8F1D9
:1013B000010F09D02168380A0861324620460A998F
:1013C00000F05DF90028E8D120680561324620462A
:1013D0000A9900F054F90028DFD12068016841F42F
:1013E0008071016000960022594620460A9B00F059
:1013F00091F80028B3D1216809F0FF0040F0010006
:10140000086100E007E03346044920460A9A00F0EC
:10141000B5F80028AAD00120A8E7000002000100CA
:101420002DE9F843044600680D46DDE90897016898
:101430009846164641F4807101604B4600224FF0F9
:1014400001112046009700F065F848B12068006857
:10145000C00502D54FF4007020640320BDE8F88376
:10146000216805F0FE0008613B464A4615492046C2
:1014700000F084F888B920684169806900903A4694
:101480004946204600F0FBF848B1206C042804D1FE
:101490002068016841F4007101600120DEE7F5B2C7
:1014A000B8F1010F09D02168300A08613A4649466F
:1014B000204600F0E4F80028E7D12068056100200C
:1014C000CCE700000200010070B516460D46044648
:1014D0000DE02046FFF70EFF08B1012070BD681C2B
:1014E00005D0FFF759F8801BA84207D835B120680E
:1014F0004069C0434007ECD4002070BD002044F890
:10150000300F20216173A073216941F02001216116
:101510002073E2E72DE9F0471D4690460E4604464B
:10152000C1F30747DDF8209008E0681C06D0FFF7FC
:1015300033F8A0EB0900A8420FD875B12068012F3D
:1015400018D0806926EA00000004000C14D00020A6
:101550004045EAD00020BDE8F087002044F8300F75
:1015600020216173A073216941F020012161207362
:101570000120F0E74069E5E70120E9E72DE9F047C0
:10158000984615460E4604464FF000094FF0200AD3
:10159000C1F3074723E020684069C043400515D4E4
:1015A0002068016841F40071016021686FF4806077
:1015B0004861C4F8309084F83DA084F83E90216CD6
:1015C00041F00401216484F83C901EE0681C06D0C0
:1015D000FEF7E2FFA0EB0800A8420AD84DB1206850
:1015E000012F15D0806926EA00000004000C0DD000
:1015F000D1E744F8309F84F80DA084F80E9021695B
:1016000041F02001216184F80C900120BDE8F087B1
:101610004069E8E72DE9F04116460D4604460027EB
:101620004FF0200817E04069C043C0060DD454F8BD
:10163000301B6FF01000486144F80D7B04F81D89E1
:10164000A777206A2062277717E0FEF7A5FF801BA7
:10165000A84208D83DB120684169C9434906E2D48F
:101660000020BDE8F08144F8307F84F80D80A77336
:10167000206940F02000206127730120F1E770B558
:1016800016460D4604460DE02046FFF733FE08B12E
:10169000012070BD681C05D0FEF77EFF801BA842AC
:1016A00007D835B120684069C0430006ECD400205B
:1016B00070BD002044F8300F20216173A0732169B0
:1016C00041F0200121612073E2E70000F0B51748E6
:1016D00087B0016841F002010160006800F002007B
:1016E00005900520FFF728FA002211461720FFF782
:1016F00003FA1720FFF7F3F914216846FEF798FD67
:101700004FF404144FF40070012502268DE8710097
:10171000074F69463846FEF751FE28028DE87100F2
:1017200069463846FEF74AFE07B0F0BD3038024041
:1017300000040240FEE7704770477047FFF78CB91E
:1017400030B593B030216846FEF772FD14210CA825
:10175000FEF76EFD1D480024016841F080510160D4
:10176000006800F0805011901948016841F48041F0
:1017700001600068022500F4804011904FF4803031
:101780000190012000908005CDE90650042008AAB0
:10179000A82182E823000B906846FFF7CFFA0028C3
:1017A000FAD14FF4A050CDE90E404FF48050109084
:1017B0000F20CDE90C0505210CA8FFF7CFF9002873
:1017C000F9D1FFF765FA13B030BD00004038024090
:1017D000007000400248016841F4700101607047E8
:1017E00088ED00E00849074AC1E9002000200861AF
:1017F000C8600C228860C1E90520C8610846FFF76F
:1018000069BC0000001001407000002070B5044663
:1018100000680169E26821F4405111430161A16847
:101820002069E26901436069104301432068C2688E
:1018300049F20C639A430A43C26020684169A26975
:1018400021F440711143416131492068884202D03E
:101850003049884202D1FFF731FA01E0FFF71EFA62
:10186000E2690023192164253226B2F5004F62682F
:1018700028D0A0FB0101930F9200FEF7A1FC0146C6
:10188000B0FBF5F06FF01802504301EB800006EB5F
:101890000010B0FBF5F000F0F002B1FBF5F002EB48
:1018A0000012B1FBF5F06FF01803584301EB800014
:1018B00006EB0010B0FBF5F000F00F0021681044BB
:1018C000886070BDA0FB010192185B41FEF778FCB7
:1018D0000146B0FBF5F00201B1FBF5F06FF0180323
:1018E000584301EB800006EBC000B0FBF5F000F0C0
:1018F000F80002EB4002B1FBF5F0584301EB800029
:1019000006EBC000B0FBF5F000F00700D6E70000E2
:1019100000100140001401402DE9F0411E46174619
:1019200088460446069D26E0681C24D025B1FEF7B3
:1019300033FE801BA8421ED920680C3050E8001FDF
:1019400021F4D07140E80012002AF5D1206814304B
:1019500050E8001F21F0010140E80012002AF5D1F3
:10196000202084F83D0084F83E00002084F83C00EC
:101970000320BDE8F0812068016838EA010004D046
:101980000020B842D0D00020F3E70120F9E7FEE7BD
:101990000FB4054B10B503A9044A029800F028F8CB
:1019A00010BC5DF814FB0000451B00081800002067
:1019B0000907090E002804DB00F1E02080F800147C
:1019C000704700F00F0000F1E02080F8141D704710
:1019D00002E008C8121F08C1002AFAD170477047F8
:1019E000002001E001C1121F002AFBD17047000056
:1019F0002DE9FF4F89B09B460446002506E02528C7
:101A00000BD05A460B999047641C6D1C2078002817
:101A1000F5D10DB02846BDE8F08F0027B846012269
:101A2000474900E0074314F8013F203B02FA03F066
:101A30000842F7D120782E2819D114F8010F47F069
:101A400004072A280ED06FF02F022078A0F1300171
:101A500009290CD808EB880102EB410100EB0108D1
:101A6000641CF2E70A98641C50F8048B0A902078F2
:101A70000028CED0642808D0692806D075281ED04A
:101A80005A460B9990476D1C58E00A994FF00A0985
:101A900001C90A91002802DA40422D2102E03905ED
:101AA00004D52B218DF82010012103E0F90704D083
:101AB0002021F7E78A4608AE0DE00021FAE70A99EF
:101AC0004FF00A0901C90A91F7E74946FEF7BBFB47
:101AD000303106F8011D0028F7D1ADEB060000F10A
:101AE0002009780701D44FF00108C84502DDA8EBB2
:101AF000090000E000208046002706E008A85A46BA
:101B0000C05D0B9990476D1C7F1C5745F6DB04E0C8
:101B100030205A460B9990476D1CB8F10001A8F18E
:101B20000108F5DC05E016F8010B5A460B999047C1
:101B30006D1CB9F10001A9F10109F4DC641C65E731
:101B40000928010013B54FF47A730122694605484C
:101B5000FFF726FB034800680168C9434906FBD428
:101B600000981CBD700000201CB54FF000090A2031
:101B70008DF800008DF804904D464C46FEF774FF3A
:101B8000FFF7DEFDA820FEF7A7FB4FF4E130FFF7DB
:101B900029FE43A0FFF7FCFEFFF798FDFFF75AFB75
:101BA00069463020FEF7D4FB0A20FEF7A7FB01A907
:101BB0003020FEF7BDFB0A20FEF7A0FB3DA0FFF79B
:101BC000E7FE9DF8041042A0FFF7E2FE464EDFF864
:101BD0001C814FF4007B4FF4807A3078012824D1A7
:101BE0005F4659464046FEF7D1FCF0B939464046BB
:101BF000FEF7CCFCC8B9C5B99DF800000125401E10
:101C00008DF8000069463020FEF7A2FB0A20FEF79F
:101C100075FB01A93020FEF78BFB0A20FEF76EFB57
:101C20009DF8041032A0FFF7B3FE374F3878012833
:101C300023D151464046FEF7A9FCF0B95146404633
:101C4000FEF7A4FCC8B9C4B99DF800000124401CEB
:101C50008DF8000069463020FEF77AFB0A20FEF777
:101C60004DFB01A93020FEF763FB0A20FEF746FB7F
:101C70009DF804101EA0FFF78BFE59464046FEF764
:101C800085FC012802D186F8009000255146404687
:101C9000FEF77CFC0128A0D187F8009000249CE787
:101CA00077656C636F6D6520746F206D6375210DB2
:101CB0000A000000454550524F4DE8AFBBE58F96F6
:101CC000E59CB0E59D803A307833300D0A00000085
:101CD000454550524F4DE8AFBBE587BAE580BC3A69
:101CE00025640D0A000000000800002000040240E6
:101CF000E58699E585A5E79A84E580BCE4B8BA3A1B
:101D000025640D0A0000000009000020000000000A
:101D1000000000000102030406070809000000009B
:101D200001020304441D0008000000201C00000004
:101D3000D0190008601D00081C0000209C04000051
:101D4000E01900080024F40000000000000000007A
:101D50000100000010000000000000000000000072
:040000050800018965
:00000001FF
