:020000040800F2
:10000000F00400209D010008231800081B180008B8
:100010001F180008D5020008B31D000800000000EA
:100020000000000000000000000000002718000889
:10003000D90200080000000025180008291800084F
:10004000B7010008B7010008B7010008B7010008B0
:10005000B7010008B7010008B7010008B7010008A0
:10006000B7010008B7010008B7010008B701000890
:10007000B7010008B7010008B7010008B701000880
:10008000B7010008B7010008B7010008B701000870
:10009000B7010008B7010008B7010008B701000860
:1000A000B7010008B7010008B7010008B701000850
:1000B000B7010008B7010008FD180008B7010008E3
:1000C000B7010008B7010008B7010008B701000830
:1000D000B7010008B7010008B7010008B701000820
:1000E000B7010008B7010008B7010008B701000810
:1000F000B7010008B7010008B7010008B701000800
:10010000B7010008B7010008B7010008B7010008EF
:10011000B7010008B7010008B7010008B7010008DF
:10012000B7010008B7010008B7010008B7010008CF
:10013000B7010008B7010008B7010008B7010008BF
:10014000B7010008B7010008B7010008B7010008AF
:10015000B7010008B7010008B7010008B70100089F
:10016000B7010008B7010008B7010008B70100088F
:10017000B7010008B7010008B7010008000000003F
:10018000B7010008B7010008DFF80CD000F090F8C4
:1001900000480047B11F0008F004002006488047CF
:1001A00006480047FEE7FEE7FEE7FEE7FEE7FEE75C
:1001B000FEE7FEE7FEE7FEE7E91800088901000810
:1001C0002DE9F05F0546002092469B46884606468C
:1001D000814640241BE0284641464746224600F01F
:1001E00057F853465A46C01A914110D31146184643
:1001F000224600F03EF82D1A67EB01084F462246D2
:100200000120002100F035F817EB00094E41201EB7
:10021000A4F10104DFDC484631462A464346BDE8E6
:10022000F09FD2B201E000F8012B491EFBD27047CB
:100230000022F6E710B513460A4604461946FFF7B2
:10024000F0FF204610BD30B50B46014600202022AD
:10025000012409E021FA02F59D4205D303FA02F5D3
:10026000491B04FA02F52844151EA2F10102F1DC33
:1002700030BD202A04DB203A00FA02F1002070474A
:100280009140C2F1200320FA03F3194390407047D4
:10029000202A04DB203A21FA02F00021704721FADB
:1002A00002F3D040C2F12002914008431946704742
:1002B000064C074D06E0E06840F0010394E80700B3
:1002C00098471034AC42F6D3FFF762FFE41F0008F2
:1002D0000420000800BFFEE77047000010B5044688
:1002E00000204FF0E021086100F010FE1520B4FB63
:1002F000F0F00149086010BD1000002008480068B7
:10030000406A642808D307480078401C05490870F3
:1003100000200349096848620248007870470000DD
:10032000600000201500002000B597B0142112A82D
:10033000FFF77EFF242109A8FFF77AFF002007902E
:10034000089003900490059006900190029000BFE1
:1003500000905448006840F0020052490860084686
:10036000006800F00200009000BF00BF00BF002046
:1003700000904C481038006840F00100494910399D
:1003800008600846006800F00100009000BF00BF50
:10039000402012900220139000201490032015900A
:1003A0000220169012A9404800F088F88020129090
:1003B0000220139000201490032015900220169024
:1003C00012A9394800F07AF8384839490860002005
:1003D00048600021364881604FF6FF71C1600021FE
:1003E000016181610120099000200A9001200B9099
:1003F00000200C900F200D9000200E9001200F90F7
:10040000002010900F20119009A9294800F016FF34
:1004100000200790089007A9254800F0A7FD00BF1D
:10042000002000901F48006840F004001D4908604B
:100430000846006800F00400009000BF00BF0520DF
:1004400000F0BCF9002211461E2000F079F91E20B0
:1004500000F066F917481849086042F2CF0048607A
:1004600000211548816040F2E731C160002101613F
:10047000816100F0D5FD4FF48050039003A90E4830
:1004800000F056FE00200190029001A90A4800F0F9
:100490006DFD094800F0F8FD0021054800F033FF2C
:1004A00017B000BD40380240000002400004004088
:1004B0006000002000080040A8000020F8B50246B7
:1004C0000B460025002400200021D6E0012606FA74
:1004D00001F51E6806EA0504AC4274D11E7906F0E7
:1004E0000306012E04D01E7906F00306022E13D156
:1004F00090684F000326BE40B0434F00DE68BE4008
:1005000030439060506801268E40B0431E79C6F398
:1005100000168E40304350601E7906F00306032E0D
:1005200009D0D0684F000326BE40B0434F009E68FC
:10053000BE403043D0601E7906F00306022E13D170
:10054000CF0802F1200656F827004E07F70E0F26B7
:10055000BE40B0434F07FF0E1E69BE403043CF0878
:1005600002F1200646F8270010684F000326BE401F
:10057000B0431E7906F003064F00BE4030431060C2
:100580005E6806F44036002E76D000BF0026009646
:100590003C4E366846F480463A4F3E603E463668EA
:1005A00006F48046009600BF00BF374E8F0856F80D
:1005B00027008E07370F0F26BE40B043334EB2429E
:1005C00002D1002624E057E0314EB24201D101268B
:1005D0001EE0304EB24201D1022619E02E4EB24248
:1005E00001D1032614E02D4EB24201D104260FE0C2
:1005F0002B4EB24201D105260AE02A4EB24201D169
:10060000062605E0284EB24201D1072600E0082662
:100610008F073F0FBE4030431B4E8F0846F8270020
:10062000224E3068A0435E6806F4801606B120436F
:100630001E4E3060361D3068A0435E6806F400161A
:1006400006B12043194E361D3060184E361F3068F3
:10065000A0435E6806F4003606B12043134E361FF1
:100660003060361F3068A0435E6806F4803606B1FD
:1006700020430E4E083E3060491C1029FFF426AF7F
:10068000F8BD000044380240083801400000024034
:100690000004024000080240000C0240001002402A
:1006A0000014024000180240001C0240083C0140B7
:1006B00001480068704700000400002003480068FB
:1006C0000349097808440149086070470400002084
:1006D0000C00002070B504460E4800784FF47A7183
:1006E000B1FBF0F00C490968B1FBF0F5284600F0C9
:1006F00021FC08B1012070BD102C07D20022214638
:10070000501E00F01DF80548046001E00120F2E7EA
:100710000020F0E70C00002000000020080000206E
:1007200001460846002809DB00F01F0301229A4019
:1007300043099B0003F1E023C3F8002100BF704789
:100740002DE9F05F80460D461646002701F044FB78
:10075000074639462A46334601F00700C0F1070A2A
:10076000BAF1040F02D94FF0040A01E0C0F1070A00
:10077000D14600F1040ABAF1070F02D24FF0000A85
:1007800001E0A0F1030AD4464FF0010A0AFA09FA7F
:10079000AAF1010A0AEA020A0AFA0CFA4FF0010B5E
:1007A0000BFA0CFBABF1010B0BEA030B4AEA0B044F
:1007B0002146404601F018FBBDE8F09F00BF00F065
:1007C0000702064B19684FF6FF031940044B0B4311
:1007D00043EA0221014B196000BF70470CED00E0B5
:1007E0000000FA0570B504460D460CB9012070BD35
:1007F0005848006800F00700A84209D255490D701A
:100800000846006800F00700A84201D00120EEE78A
:10081000207800F0020002281DD1207800F00400AA
:10082000042805D14C48006840F4E0504A4908606B
:10083000207800F00800082805D14748006840F4F7
:100840006040454908604448006820F0F000A16815
:10085000084341490860207800F00100A8B36068AF
:10086000012807D13C4808380068C0F34040B8B9B7
:100870000120BCE76068022802D06068032807D125
:10088000354808380068C0F3406048B90120AEE739
:10089000314808380068C0F3400008B90120A6E7D5
:1008A0002D48006820F00300616808432A49086069
:1008B000FFF7FEFE064609E0FFF7FAFE801B41F255
:1008C0008831884202D9032091E707E02248006876
:1008D00000F00C006168B0EB810FEDD11D4800689D
:1008E00000F00700A84209D91A490D7008460068AF
:1008F00000F00700A84201D0012078E7207800F03E
:100900000400042807D11448006820F4E050E1688E
:10091000084311490860207800F00800082808D131
:100920000D48006820F46040216940EAC1000A498E
:10093000086000F045F808490968C1F30311074A47
:10094000515CC8400649086006480068FFF7C2FECF
:1009500000204CE7003C024008380240CA1F000853
:10096000000000200800002001200149C8647047F1
:100970000000474201480068704700000000002066
:1009800000B5FFF7F7FF04490968C1F38221034A64
:10099000515CC84000BD000008380240DA1F000862
:1009A00000B5FFF7E7FF04490968C1F34231034A84
:1009B000515CC84000BD000008380240DA1F000842
:1009C0002DE9F047002400250026A14625480068AF
:1009D00000F00C0020B1042805D008283AD105E029
:1009E000DFF8849039E0DFF8849036E01D48001F7E
:1009F000006800F03F041B48001F006800F48000FE
:100A000078B11A481749091F0968C1F38811A0FB7A
:100A100001700146224600233846FFF7D1FB054608
:100A20000EE011480F49091F0968C1F38811A0FBA6
:100A300001700146224600233846FFF7C1FB0546F8
:100A40000848001F0068C0F30140401C4600B5FB89
:100A5000F6F902E0DFF8109000BF00BF4846BDE89D
:100A6000F0870000083802400024F40000127A00E9
:100A7000F8B504460CB90120F8BD207800F001005B
:100A8000002874D0F948006800F00C0004280DD04C
:100A9000F648006800F00C00082813D1F348001F46
:100AA000006800F48000B0F5800F0BD1EF480838E3
:100AB0000068C0F34040002859D06068002856D133
:100AC0000120D9E700BF6068B0F5803F08D1E74852
:100AD0000838006840F48030E449083908601EE0B6
:100AE0006068B0F5A02F0DD1E0480838006840F4E8
:100AF0008020DE49083908600846006840F48030EC
:100B000008600CE0D9480838006820F48030D749E4
:100B1000083908600846006820F48020086000BF9B
:100B2000606890B1FFF7C4FD054606E0FFF7C0FD21
:100B3000401B642801D903209EE7CC480838006890
:100B4000C0F340400028F1D011E0FFF7B1FD0546A9
:100B500006E0FFF7ADFD401B642801D903208BE7B9
:100B6000C24808380068C0F340400028F1D120781E
:100B700000F0020002285FD1BC48006800F00C00C1
:100B800058B1BA48006800F00C0008281CD1B748DA
:100B9000001F006800F48000B0B9B448083800684D
:100BA000C0F3400020B1E068012801D0012063E7D4
:100BB000AE480838006820F0F800216940EAC1001A
:100BC000AA490839086037E0E06800B30120A84965
:100BD0000860FFF76DFD054606E0FFF769FD401B65
:100BE000022801D9032047E7A04808380068C0F36D
:100BF00040000028F1D09D480838006820F0F80037
:100C0000216940EAC10099490839086014E00020D0
:100C100097490860FFF74CFD054606E0FFF748FDE1
:100C2000401B022801D9032026E7904808380068B5
:100C3000C0F340000028F1D1207800F00800082817
:100C40002CD16069A8B101208A490860FFF730FD06
:100C5000054606E0FFF72CFD401B022801D90320C2
:100C60000AE782486C300068C0F340000028F1D0E9
:100C700014E000207F490860FFF71AFD054606E0F2
:100C8000FFF716FD401B022801D90320F4E6774840
:100C90006C300068C0F340000028F1D1207800F0EB
:100CA0000400042870D1002770483830006800F034
:100CB000805090B900BF002000906C483830006828
:100CC00040F080506949383108600846006800F0FB
:100CD0008050009000BF00BF01276748006800F403
:100CE0008070B0B96448006840F480706249086060
:100CF000FFF7DEFC054606E0FFF7DAFC401B0228A2
:100D000001D90320B8E65C48006800F48070002830
:100D1000F2D000BFA068012808D1544868300068AC
:100D200040F001005149683108601DE0A0680528C5
:100D30000DD14E486830006840F004004B496831DE
:100D400008600846006840F0010008600CE0474871
:100D50006830006820F001004449683108600846A6
:100D6000006820F00400086000BFA068A8B1FFF789
:100D70009FFC054609E0FFF79BFC401B41F28831D0
:100D8000884202D9032077E626E0384868300068B8
:100D9000C0F340000028EED013E0FFF789FC0546C1
:100DA00008E0FFF785FC401B41F28831884201D9F9
:100DB000032061E62D4868300068C0F34000002839
:100DC000EFD1012F07D129483830006820F080503A
:100DD00026493831086000BFA069002845D0234863
:100DE000006800F00C0008285DD0A069022845D1F9
:100DF00000201F490866FFF75BFC054606E0FFF789
:100E000057FC401B022801D9032035E61748083853
:100E10000068C0F340600028F1D1D4E9070108431D
:100E2000616A40EA81110122A06AC2EB500041EAE6
:100E300000412C20005D41EA00600C49091F086058
:100E400001200B490866FFF733FC054606E0FFF773
:100E50002FFC401B022801D903200DE60348083867
:100E60000068C0F340600028F1D049E00838024033
:100E700000004742800E4742007000400020214998
:100E80000866FFF715FC054606E0FFF711FC401B5E
:100E9000022801D90320EFE51B480068C0F3406039
:100EA0000028F2D12CE0A069012800D1E4E5164821
:100EB000001D0668A069012820D006F48001E069C1
:100EC00081421BD106F03F01206A814216D147F6CC
:100ED000C0703040616AB0EB811F0FD106F4403121
:100EE0000122A06AC2EB5000B1EB004F06D106F020
:100EF00070612C20005DB1EB006F01D00120BBE5DB
:100F00000020B9E50000474200380240042808D11B
:100F10004FF0E021096941F004014FF0E022116136
:100F200007E04FF0E021096921F004014FF0E022D1
:100F30001161704770B504462546681EB0F1807F88
:100F400001D301200FE0681E4FF0E02148610F211E
:100F50004FF0FF3000F048FF00204FF0E0218861A3
:100F600007200861002070BD7047704730B5024609
:100F70000B4600BF92F83C00012801D1022030BD91
:100F8000012082F83C0000BF022082F83D0010687A
:100F900044681068816824F070041868044310687D
:100FA0004460184D1068A8421BD01068B0F1804F03
:100FB00017D0154D1068A84213D0144D1068A842E0
:100FC0000FD0134D1068A8420BD0124D1068A842E4
:100FD00007D0114D1068A84203D0104D1068A842E8
:100FE00005D121F08001586801431068816001201B
:100FF00082F83D0000BF002082F83C0000BF00BF27
:10100000BDE700000000014000040040000800406F
:10101000000C004000040140004001400018004066
:1010200010B504460CB9012010BD94F83D0028B954
:10103000002084F83C00204600F025F8022084F8C7
:101040003D00211D206800F085FC012084F8460049
:1010500000BF84F83E0001213F200155402001558A
:101060004120015500BF00BF012084F84200432009
:101070000155442001554520015500BF012084F849
:101080003D000020D0E77047014691F83D0001285F
:1010900001D001207047022081F83D000868C06837
:1010A00040F001000B68D8601A4B086898421BD0CA
:1010B0000868B0F1804F17D0174B0868984213D0DA
:1010C000164B086898420FD0154B086898420BD011
:1010D000144B0868984207D0134B0868984203D015
:1010E000124B086898420CD10868806800F007022B
:1010F000062A0CD00868006840F001000B681860F0
:1011000005E00868006840F001000B6818600020E6
:10111000C0E700000000014000040040000800405B
:10112000000C004000040140004001400018004055
:101130002DE9F04104460D46002700BF94F83C001D
:10114000012802D10220BDE8F081012084F83C0092
:1011500000BF022084F83D002068866826F07706EC
:1011600026F47F46206886602868502833D00CDC3F
:10117000202850D004DC00284BD0102851D149E061
:10118000302849D040284CD139E060282DD0702833
:1011900007D0B0F5805F03D0B0F5005F41D10DE01E
:1011A00041E0D5E902136A68206800F050FC20682D
:1011B000866846F077062068866034E0D5E9021339
:1011C0006A68206800F043FC2068806840F4804032
:1011D0002168886027E0EA686968206800F04BFCB5
:1011E0005021206800F03EFC1DE0EA686968206834
:1011F00000F054FC6021206800F034FC13E0EA6841
:101200006968206800F037FC4021206800F02AFC63
:1012100009E000BF00BF00BF2968206800F022FC81
:1012200001E0012700BF00BF012084F83D0000BF9E
:10123000002084F83C0000BF384684E72DE9F041E7
:1012400004460D4614B90120BDE8F08194F83D0034
:1012500028B9002084F83C00204600F053F8022012
:1012600084F83D002068806844F2070188432168C3
:101270008860211D206800F06DFB2068D0F8088090
:10128000206886692068076A286840EA080840F2F2
:1012900003308643A969A86840EA0120064340F666
:1012A0000C4086434FF2F0008643E969E86840EA63
:1012B0000120064328690001296A40EA01300643FB
:1012C00027F0220727F088076969686840EA01105B
:1012D00007432068C0F8088020688661206807629C
:1012E000012084F8460084F83E0001213F2001558A
:1012F000012084F8420043200155012084F83D007C
:101300000020A1E770472DE9F04304460D4694F80C
:101310003E603F20075D94F84280432010F804901F
:101320006DB9012E02D1B8F1010F02D00120BDE844
:10133000F083022084F83E0084F8420025E0042D6A
:101340000CD1012F02D1B9F1010F01D00120EEE73C
:1013500002213F2001554320015516E0012E07D1FF
:10136000012F05D1B8F1010F02D1B9F1010F01D060
:101370000120DCE7022084F83E0002213F200155D5
:10138000022084F842004320015515B1042D0CD1F0
:1013900005E001220021206800F048FB10E0012256
:1013A0000421206800F042FB0AE0012200212068AD
:1013B00000F03CFB01220421206800F037FB00BF55
:1013C00000BF2068006840F001002168086000202C
:1013D000ADE730B504460D4615B1042D0CD105E03E
:1013E00000221146206800F021FB10E000220421B9
:1013F000206800F01BFB0AE000221146206800F084
:1014000015FB00220421206800F010FB00BF00BF84
:1014100000BF2068006A41F21111084050B92068ED
:10142000006A8910084028B92068006820F001008F
:101430002168086000BF0DB1042D28D11DB901201D
:1014400084F83E000EE0042D03D101213F20015518
:1014500008E0082D03D101214020015502E00121BF
:10146000412001551DB9012084F842001AE0042DE5
:1014700003D101214320015514E0082D03D101219E
:10148000442001550EE00121452001550AE00120CC
:1014900084F83E0001213F200155012084F84200DC
:1014A00043200155002030BD704710B50446206828
:1014B0000069C0F34000D8B12068C068C0F34000A4
:1014C000B0B16FF002002168086101202077206828
:1014D000806900F0030018B12046FFF7E5FF05E042
:1014E000204600F0ADF8204600F0ABF80020207751
:1014F00020680069C0F38000D8B12068C068C0F3DC
:101500008000B0B16FF004002168086102202077EC
:101510002068806900F4407018B12046FFF7C4FFCE
:1015200005E0204600F08CF8204600F08AF8002004
:10153000207720680069C0F3C000D8B12068C06877
:10154000C0F3C000B0B16FF008002168086104204A
:1015500020772068C06900F0030018B12046FFF72B
:10156000A3FF05E0204600F06BF8204600F069F884
:101570000020207720680069C0F30010D8B12068EF
:10158000C068C0F30010B0B16FF0100021680861AE
:10159000082020772068C06900F4407018B1204608
:1015A000FFF782FF05E0204600F04AF8204600F0F1
:1015B00048F8002020772068006900F0010058B149
:1015C0002068C06800F0010030B16FF001002168B0
:1015D0000861204600F036F820680069C0F3C010AA
:1015E00058B12068C068C0F3C01030B16FF08000FF
:1015F000216808612046FFF7B7FC20680069C0F346
:10160000801058B12068C068C0F3801030B16FF00E
:10161000400021680861204600F015F82068006944
:10162000C0F3401058B12068C068C0F3401030B11A
:101630006FF02000216808612046FFF796FC10BD7E
:10164000704770477047704710B504460CB90120C9
:1016500010BDA06900B100E000BF94F83D0028B9BA
:10166000002084F83C00204600F028F8242084F86C
:101670003D002068C06820F400502168C860204602
:1016800000F038FA2068006920F490402168086171
:101690002068406920F02A00216848612068C068FD
:1016A00040F400502168C86000202064202084F8A5
:1016B0003D0084F83E000020CAE7000010B586B067
:1016C000044600BF002005901C48006840F001005F
:1016D0001A4908600846006800F00100059000BF44
:1016E00000BF00BF0020059014481430006840F08F
:1016F00010001249143108600846006800F010001C
:10170000059000BF00BF0E492068884213D1142104
:1017100001A8FEF78DFD4FF4C060019002200290F9
:1017200000200390032004900720059001A905489C
:10173000FEF7C4FE00BF06B010BD00003038024006
:1017400000100140000002402DE9F84F04460E460B
:10175000174699464FF0000A94F83D0020285AD1C8
:1017600006B117B90120BDE8F88F00BF94F83C001E
:10177000012801D10220F6E7012084F83C0000BFD7
:1017800000202064212084F83D00FEF791FF82466E
:10179000A784E784A068B0F5805F04D1206910B900
:1017A0000025B04602E035464FF0000800BF00209B
:1017B00084F83C0000BF1BE05346002280212046F5
:1017C000CDF8009000F0ACFA08B10320CBE745B9A2
:1017D000B8F80000C0F308002168486008F102086A
:1017E00003E02878216848606D1CE08C401EE0848E
:1017F000E08C0028E0D15346002240212046CDF85D
:10180000009000F08DFA08B10320ACE7202084F8A6
:101810003D000020A7E70220A5E700BFFEE700BFCC
:10182000FEE770477047704710B5FEF747FF10BDE1
:1018300000B593B0302107A8FEF7FAFC142102A8E6
:10184000FEF7F6FC00BF002001902548006840F03C
:101850008050234908600846006800F080500190DD
:1018600000BF00BF00BF002001901E48006840F488
:1018700080401C4908600846006800F480400190E0
:1018800000BF00BF4FF48030089001200790022075
:101890000D9041050E9104210F91A8211091022174
:1018A00011910421129100BF07A8FFF7E1F8002869
:1018B000FAD104904FF4A05005904FF48050069058
:1018C0000F2002900220039000BF052102A8FEF71E
:1018D00089FF0028F9D1FFF747F813B000BD0000D9
:1018E00040380240007000400348006840F4700037
:1018F000014908607047000088ED00E070B500BF46
:1019000000250C48FFF7D1FD00210B48FFF761FDD2
:10191000FEF7F4FCC0EB00108400AC4203D021467B
:1019200006A000F049FA2C4600210348FFF7EBFC23
:1019300070BD0000A800002060000020E5BD93E518
:10194000898DE8BDACE9809F3A256420722F6D69CE
:101950006E0D0A0010B50268294B98420ED0B0F106
:10196000804F0BD0274B984208D0274B984205D088
:10197000264B984202D0264B984203D122F07002A7
:101980004B681A431E4B984220D0B0F1804F1DD0B7
:101990001C4B98421AD01C4B984217D01B4B9842B4
:1019A00014D01B4B984211D01A4B98420ED01A4BB0
:1019B00098420BD0194B984208D0194B984205D049
:1019C000184B984202D0184B984203D122F440722F
:1019D000CB681A4322F080034C6943EA0402026098
:1019E0008B68C3620B688362054B984202D0084B38
:1019F000984201D10B6903630123436110BD0000CC
:101A0000000001400004004000080040000C0040BD
:101A100000040140004001400044014000480140F2
:101A200000180040001C00400020004030B501F0CC
:101A30001F05012404FA05F3046A9C430462046A46
:101A400001F01F0502FA05F52C43046230BD30B5E4
:101A50000C46816821F47F4142EA0325254329434E
:101A6000816030BD0A46816821F0700142F00703B1
:101A700019438160704730B50B461446026A056A07
:101A800025F001050562816921F0F00141EA0411A8
:101A900022F00A021A438161026230BD30B50B4662
:101AA0001446056A25F0100505628169026A21F471
:101AB000704141EA043122F0A00242EA031281613E
:101AC000026230BD10B5044608480949086008465E
:101AD000446000210161C16081600C2141610021ED
:101AE0008161C161FFF7B0FD10BD00000010014031
:101AF0001C0000202DE9F84F04462068006920F4FE
:101B00004050E1680843216808612169A0680843E2
:101B100061690843E169084300902068C06849F2A0
:101B20000C618843009908432168C86020684069B7
:101B300020F44070A1690843216848617649206813
:101B4000884203D075492068884203D1FEF728FFF8
:101B5000814602E0FEF714FF8146E069B0F5004FD0
:101B60006CD102206168A0FB015003461920A9FB3B
:101B7000007001462A463846FEF722FB6421B0FB7E
:101B8000F1F04FEA001A02206168A0FB01510B46F8
:101B90001920A9FB00712A463846FEF711FB83463F
:101BA00002206168A0FB015003461920A9FB0071C7
:101BB0002A463846FEF704FB6421B0FBF1F000EB47
:101BC000C00101EB0010ABEB8000322101EBC00043
:101BD0006421B0FBF1F000F0F8000AEB400A0220AB
:101BE0006168A0FB015003461920A9FB0070014663
:101BF0002A463846FEF7E4FA834602206168A0FBD5
:101C0000015003461920A9FB00712A463846FEF709
:101C1000D7FA6421B0FBF1F000EBC00101EB00103A
:101C2000ABEB8000322101EBC0006421B0FBF1F08E
:101C300000F007005044216888606AE00420616871
:101C4000A0FB015003461920A9FB007001462A465B
:101C50003846FEF7B5FA824604206168A0FB0150C1
:101C600003461920A9FB007001462A463846FEF7B4
:101C7000A7FA6421B0FBF1F000EBC00101EB00100A
:101C8000AAEB8000322101EB00106421B0FBF1F0DF
:101C900000F0F00A04206168A0FB017003461920DF
:101CA000A9FB00513A462846FEF78AFA6421B0FBA8
:101CB000F1F00AEB001A04206168A0FB01510B4609
:101CC0001920A9FB00712A463846FEF779FA8346A7
:101CD00004206168A0FB015003461920A9FB007095
:101CE00001462A463846FEF76BFA6421B0FBF1F054
:101CF00000EBC00101EB0010ABEB8000322101EBE7
:101D000000106421B0FBF1F000F00F005044216896
:101D10008860BDE8F88F0000001001400014014009
:101D20002DE9F04104460D4617469846069E34E0DC
:101D3000701C88B32EB1FEF7BBFCA0EB0800B042CC
:101D40002BD900BF00BF21680C3151E8001F21F4DE
:101D5000D07021680C3141E80002002AF3D100BFA5
:101D600000BF00BF2168143151E8001F21F00100BD
:101D70002168143141E80002002AF3D100BF20207D
:101D800084F83D0084F83E0000BF002084F83C0049
:101D900000BF0320BDE8F081FFE72068006828400D
:101DA000A84201D1012000E00020B842C0D00020AC
:101DB000F0E700BFFEE700000FB4054B10B503A924
:101DC000044A029800F034F810BC5DF814FB0000DF
:101DD000851F00081800002002480068C0F3022098
:101DE000704700000CED00E010B5002804DB0A0786
:101DF000130E054A135406E00A07140E034A00F0B6
:101E00000F031B1FD45410BD00E400E018ED00E0E8
:101E100002E008C8121F08C1002AFAD170477047B3
:101E2000002001E001C1121F002AFBD17047000011
:101E30002DE9FF4F89B09B460446002506E0252882
:101E40000BD05A460B999047641C6D1C20780028D3
:101E5000F5D10DB02846BDE8F08F0027B846012225
:101E6000474900E0074314F8013F203B02FA03F022
:101E70000842F7D120782E2819D114F8010F47F025
:101E800004072A280ED06FF02F022078A0F130012D
:101E900009290CD808EB880102EB410100EB01088D
:101EA000641CF2E70A98641C50F8048B0A902078AE
:101EB0000028CED0642808D0692806D075281ED006
:101EC0005A460B9990476D1C58E00A994FF00A0941
:101ED00001C90A91002802DA40422D2102E03905A9
:101EE00004D52B218DF82010012103E0F90704D03F
:101EF0002021F7E78A4608AE0DE00021FAE70A99AB
:101F00004FF00A0901C90A91F7E74946FEF79BF924
:101F1000303106F8011D0028F7D1ADEB060000F1C5
:101F20002009780701D44FF00108C84502DDA8EB6D
:101F3000090000E000208046002706E008A85A4675
:101F4000C05D0B9990476D1C7F1C5745F6DB04E084
:101F500030205A460B9990476D1CB8F10001A8F14A
:101F60000108F5DC05E016F8010B5A460B9990477D
:101F70006D1CB9F10001A9F10109F4DC641C65E7ED
:101F80000928010013B50C464FF47A730122694603
:101F90000648FFF7D9FB00BF044800680068C0F39B
:101FA00080100028F8D000981CBD00001C00002004
:101FB000FFF73EFCA820FEF791F94FF4E130FFF760
:101FC00081FDFEF7B1F900BFFEE700000000000050
:101FD00000000102030406070809000000000102D6
:101FE0000304000004200008000000201C00000082
:101FF000101E0008202000081C000020D40400004F
:10200000201E00080024F400000000001000000062
:1020100001000000000000000000000000000000BF
:040000050800018965
:00000001FF
