:020000040800F2
:10000000B00400209D010008BF1B0008EB1500088C
:10001000BB1B000861030008871F000800000000E8
:10002000000000000000000000000000C31B0008EA
:100030006503000800000000C11B0008C51B000884
:10004000B7010008B7010008B7010008B7010008B0
:10005000B7010008B7010008B7010008B7010008A0
:10006000B7010008B7010008B7010008B701000890
:10007000B7010008B7010008B7010008B701000880
:10008000B7010008B7010008B7010008B701000870
:10009000B7010008B7010008B7010008B701000860
:1000A000B7010008B7010008B7010008B701000850
:1000B000B7010008B7010008B7010008B701000840
:1000C000B7010008B7010008B7010008B701000830
:1000D000B7010008B7010008B7010008B701000820
:1000E000B7010008B7010008B7010008B701000810
:1000F000B7010008B7010008B7010008B701000800
:10010000B7010008B7010008B7010008B7010008EF
:10011000B7010008B7010008B7010008B7010008DF
:10012000B7010008B7010008B7010008B7010008CF
:10013000B7010008B7010008B7010008B7010008BF
:10014000B7010008B7010008B7010008B7010008AF
:10015000B7010008B7010008B7010008B70100089F
:10016000B7010008B7010008B7010008B70100088F
:10017000B7010008B7010008B7010008000000003F
:10018000B7010008B7010008DFF80CD000F07AF8DA
:100190000048004741200008B0040020064880477E
:1001A00006480047FEE7FEE7FEE7FEE7FEE7FEE75C
:1001B000FEE7FEE7FEE7FEE7851C00088901000870
:1001C0002DE9F05F0546002092469B46884606468C
:1001D000814640241BE0284641464746224600F01F
:1001E00041F853465A46C01A914110D31146184659
:1001F000224600F028F82D1A67EB01084F462246E8
:100200000120002100F01FF817EB00094E41201ECD
:10021000A4F10104DFDC484631462A464346BDE8E6
:10022000F09FD2B201E000F8012B491EFBD27047CB
:100230000022F6E710B513460A4604461946FFF7B2
:10024000F0FF204610BD202A04DB203A00FA02F11C
:10025000002070479140C2F1200320FA03F31943B4
:1002600090407047202A04DB203A21FA02F0002156
:10027000704721FA02F3D040C2F1200291400843B6
:1002800019467047064C074D06E0E06840F0010350
:1002900094E8070098471034AC42F6D3FFF778FF94
:1002A00080200008A020000801B582B00020019045
:1002B00002A800F041F801A800F02AF89DF8040017
:1002C00000F00800082803D103A001F05FFE02E05F
:1002D00008A001F05BFE0EBD4148543230E5889D18
:1002E000E5A78BE58C96E68890E58A9FEFBC810DAB
:1002F0000A0000004148543230E5889DE5A78BE5AF
:100300008C96E5A4B1E8B4A5EFBC810D0A0000000D
:100310003EB504464FF47A70022101237122CDE9E3
:10032000004102903921034800F016FA054628469C
:100330003EBD00005C0000203EB504464FF47A70DC
:1003400001210B467022CDE900410290382103487B
:1003500000F07CFB054628463EBD00005C00002006
:1003600000BFFEE77047000010B5044600204FF0C4
:10037000E021086101F022F81520B4FBF0F00149FA
:10038000086010BD10000020F8B502460B4600259D
:10039000002400200021D6E0012606FA01F51E689F
:1003A00006EA0504AC4274D11E7906F00306012E5C
:1003B00004D01E7906F00306022E13D190684F0078
:1003C0000326BE40B0434F00DE68BE40304390601D
:1003D000506801268E40B0431E79C6F300168E4049
:1003E000304350601E7906F00306032E09D0D06812
:1003F0004F000326BE40B0434F009E68BE403043CE
:10040000D0601E7906F00306022E13D1CF0802F148
:10041000200656F827004E07F70E0F26BE40B043C1
:100420004F07FF0E1E69BE403043CF0802F1200681
:1004300046F8270010684F000326BE40B0431E79DF
:1004400006F003064F00BE40304310605E6806F4BD
:100450004036002E76D000BF002600963C4E36680F
:1004600046F480463A4F3E603E46366806F4804683
:10047000009600BF00BF374E8F0856F827008E0742
:10048000370F0F26BE40B043334EB24202D1002692
:1004900024E057E0314EB24201D101261EE0304E39
:1004A000B24201D1022619E02E4EB24201D10326FA
:1004B00014E02D4EB24201D104260FE02B4EB24281
:1004C00001D105260AE02A4EB24201D1062605E0F6
:1004D000284EB24201D1072600E008268F073F0FC1
:1004E000BE4030431B4E8F0846F82700224E30682E
:1004F000A0435E6806F4801606B120431E4E3060AD
:10050000361D3068A0435E6806F4001606B120432D
:10051000194E361D3060184E361F3068A0435E6895
:1005200006F4003606B12043134E361F3060361FE6
:100530003068A0435E6806F4803606B120430E4E54
:10054000083E3060491C1029FFF426AFF8BD0000BA
:1005500044380240083801400000024000040240D4
:1005600000080240000C024000100240001402404B
:1005700000180240001C0240083C0140014800688D
:10058000704700000400002070B504460CB901203B
:1005900070BD94F83D0028B9002084F83C00204646
:1005A00000F006FB242084F83D002068006820F05D
:1005B0000100216808602068006840F4004021685C
:1005C00008602068006820F400402168086000F09E
:1005D0002FFC05465C496068884206D85B48854226
:1005E00001D2012007E0002005E05948854201D2F0
:1005F000012000E00020012800D1C9E75548B5FBE3
:10060000F0F62068406820F03F00304321684860E1
:100610004D496068884201D8701C07E04FF496701D
:1006200070434FF47A71B0FBF1F0401C2168096A05
:1006300021F03F010843216808624349606888420D
:1006400014D8681E61684900B0FBF1F0401CC0F38B
:100650000B00042801D204203DE0681E61684900B7
:10066000B0FBF1F0401CC0F30B0034E0A06838B9D7
:10067000681E616801EB4101B0FBF1F0401C0AE02B
:10068000681E616801EBC10202EB0111B0FBF1F0E1
:10069000401C40F48040C0F30B0008B901201AE070
:1006A000A06848B9681E616801EB4101B0FBF1F038
:1006B000401CC0F30B000CE0681E616801EBC10236
:1006C00002EB0111B0FBF1F0401CC0F30B0040F451
:1006D000804040F400402168C9694CF6FF729143A4
:1006E00008432168C861D4E9070108432168096803
:1006F00021F0C001084321680860D4E903100843D1
:100700002168896848F2FF32914308432168886074
:10071000D4E9050108432168C96821F0FF010843B5
:100720002168C8602068006840F001002168086006
:1007300000202064202084F83D000020206384F8FD
:100740003E0000BF24E70000A086010080841E0058
:1007500000093D0040420F002DE9FC5F04460F46B2
:1007600090469946DDE90CAB0E9EFFF707FF054664
:1007700094F83D00202870D119230122B049204669
:10078000009501F007F910B10220BDE8FC9F00BF01
:1007900094F83C00012801D10220F6E7012084F8FA
:1007A0003C0000BF2068006800F0010028B9206804
:1007B000006840F00100216808602068006820F4AB
:1007C000006021680860222084F83D00402084F801
:1007D0003E0000202064C4F824A0A4F82AB0608D54
:1007E00020859848E0624B46424639462046CDE98E
:1007F000006500F081FF08B10120C6E7208D88B9AF
:1008000000BF002001902068406901902068806945
:10081000019000BF00BF2068006840F400702168AC
:10082000086040E0208D012818D12068006820F47D
:1008300080602168086000BF002001902068406946
:10084000019020688069019000BF00BF20680068A7
:1008500040F400702168086025E0EFE0208D022858
:1008600016D12068006820F4806021680860206844
:10087000006840F400602168086000BF002001901B
:1008800020684069019020688069019000BF0AE0FB
:1008900000BF0020019020684069019020688069B5
:1008A000019000BF00BFBAE0208D03287ED8208DC4
:1008B000012815D12A463146204601F010F908B129
:1008C000012062E720680069616A0870606A401C64
:1008D0006062208D401E2085608D401E60859EE0F8
:1008E000208D02282AD13346002257492046009500
:1008F00001F050F808B1012047E72068006840F493
:1009000000702168086020680069616A0870606A88
:10091000401C6062208D401E2085608D401E6085D9
:1009200020680069616A0870606A401C6062208DFE
:10093000401E2085608D401E608570E03346002299
:1009400041492046009501F025F808B101201CE737
:100950002068006820F480602168086020680069D1
:10096000616A0870606A401C6062208D401E2085AC
:10097000608D401E60853346002233492046009535
:1009800001F008F808B10120FFE62068006840F493
:1009900000702168086020680069616A0870606AF8
:1009A000401C6062208D401E208500E010E0608DBC
:1009B000401E608520680069616A0870606A401C9A
:1009C0006062208D401E2085608D401E608526E07F
:1009D0002A463146204601F082F808B10120D4E6CB
:1009E00020680069616A0870606A401C6062208D3E
:1009F000401E2085608D401E608520684069C0F3E0
:100A0000800060B120680069616A0870606A401CFB
:100A10006062208D401E2085608D401E6085208D87
:100A200000287FF441AF202084F83D00002084F8A6
:100A30003E0000BF84F83C0000BFA6E60220A4E60A
:100A4000020010000000FFFF040001002DE9FC5F20
:100A500004460F4690469946DDE90CAB0E9EFFF723
:100A60008DFD054694F83D0020287DD119230122F3
:100A70004D492046009500F08DFF10B10220BDE8E1
:100A8000FC9F00BF94F83C00012801D10220F6E74A
:100A9000012084F83C0000BF2068006800F00100DD
:100AA00028B92068006840F00100216808602068CB
:100AB000006820F4006021680860212084F83D006F
:100AC000402084F83E0000202064C4F824A0A4F84C
:100AD0002AB0608D20853548E0624B464246394653
:100AE0002046CDE9006500F0B7FE08B10120C6E759
:100AF00031E02A463146204601F031F850B1206CF1
:100B0000042805D12068006840F40070216808605E
:100B10000120B4E7606A007821680861606A401CBF
:100B20006062208D401E2085608D401E608520689B
:100B30004069C0F3800070B1208D60B1606A0078B8
:100B400021680861606A401C6062208D401E20851B
:100B5000608D401E6085208D0028CAD12A4631460E
:100B6000204600F0E9FE00E01CE050B1206C0428B3
:100B700005D12068006840F40070216808600120F9
:100B80007DE72068006840F400702168086020203C
:100B900084F83D00002084F83E0000BF84F83C004B
:100BA00000BF6CE702206AE7020010000000FFFFB0
:100BB0007047000003480068034909780844014968
:100BC00008607047040000200C00002070B5044647
:100BD0000E4800784FF47A71B1FBF0F00C490968C7
:100BE000B1FBF0F5284600F0FDFB08B1012070BD17
:100BF000102C07D200222146501E00F00DF80548A7
:100C0000046001E00120F2E70020F0E70C00002082
:100C100000000020080000202DE9F05F80460D460E
:100C20001646002701F0BAF9074639462A463346E8
:100C300001F00700C0F1070ABAF1040F02D94FF022
:100C4000040A01E0C0F1070AD14600F1040ABAF132
:100C5000070F02D24FF0000A01E0A0F1030AD446C8
:100C60004FF0010A0AFA09FAAAF1010A0AEA020A8D
:100C70000AFA0CFA4FF0010B0BFA0CFBABF1010B6B
:100C80000BEA030B4AEA0B042146404601F08EF9B9
:100C9000BDE8F09F70B504460D460CB9012070BD4B
:100CA0005848006800F00700A84209D255490D7065
:100CB0000846006800F00700A84201D00120EEE7D6
:100CC000207800F0020002281DD1207800F00400F6
:100CD000042805D14C48006840F4E0504A490860B7
:100CE000207800F00800082805D14748006840F443
:100CF0006040454908604448006820F0F000A16861
:100D0000084341490860207800F00100A8B36068FA
:100D1000012807D13C4808380068C0F34040B8B902
:100D20000120BCE76068022802D06068032807D170
:100D3000354808380068C0F3406048B90120AEE784
:100D4000314808380068C0F3400008B90120A6E720
:100D50002D48006820F00300616808432A490860B4
:100D6000FFF70CFC064609E0FFF708FC801B41F288
:100D70008831884202D9032091E707E022480068C1
:100D800000F00C006168B0EB810FEDD11D480068E8
:100D900000F00700A84209D91A490D7008460068FA
:100DA00000F00700A84201D0012078E7207800F089
:100DB0000400042807D11448006820F4E050E168DA
:100DC000084311490860207800F00800082808D17D
:100DD0000D48006820F46040216940EAC1000A49DA
:100DE000086000F045F808490968C1F30311074A93
:100DF000515CC8400649086006480068FFF7E6FEF7
:100E000000204CE7003C02400838024068200008FF
:100E1000000000200800002001200149C86470473C
:100E200000004742014800687047000000000020B1
:100E300000B5FFF7F7FF04490968C1F38221034AAF
:100E4000515CC84000BD000008380240782000080E
:100E500000B5FFF7E7FF04490968C1F34231034ACF
:100E6000515CC84000BD00000838024078200008EE
:100E70002DE9F047002400250026A14625480068FA
:100E800000F00C0020B1042805D008283AD105E074
:100E9000DFF8849039E0DFF8849036E01D48001FC9
:100EA000006800F03F041B48001F006800F4800049
:100EB00078B11A481749091F0968C1F38811A0FBC6
:100EC00001700146224600233846FFF779F90546AE
:100ED0000EE011480F49091F0968C1F38811A0FBF2
:100EE00001700146224600233846FFF769F905469E
:100EF0000848001F0068C0F30140401C4600B5FBD5
:100F0000F6F902E0DFF8109000BF00BF4846BDE8E8
:100F1000F0870000083802400024F40000127A0034
:100F2000F8B504460CB90120F8BD207800F00100A6
:100F3000002874D0F948006800F00C0004280DD097
:100F4000F648006800F00C00082813D1F348001F91
:100F5000006800F48000B0F5800F0BD1EF4808382E
:100F60000068C0F34040002859D06068002856D17E
:100F70000120D9E700BF6068B0F5803F08D1E7489D
:100F80000838006840F48030E449083908601EE001
:100F90006068B0F5A02F0DD1E0480838006840F433
:100FA0008020DE49083908600846006840F4803037
:100FB00008600CE0D9480838006820F48030D74930
:100FC000083908600846006820F48020086000BFE7
:100FD000606890B1FFF7D2FA054606E0FFF7CEFA57
:100FE000401B642801D903209EE7CC4808380068DC
:100FF000C0F340400028F1D011E0FFF7BFFA0546EA
:1010000006E0FFF7BBFA401B642801D903208BE7F9
:10101000C24808380068C0F340400028F1D1207869
:1010200000F0020002285FD1BC48006800F00C000C
:1010300058B1BA48006800F00C0008281CD1B74825
:10104000001F006800F48000B0B9B4480838006898
:10105000C0F3400020B1E068012801D0012063E71F
:10106000AE480838006820F0F800216940EAC10065
:10107000AA490839086037E0E06800B30120A849B0
:101080000860FFF77BFA054606E0FFF777FA401B9A
:10109000022801D9032047E7A04808380068C0F3B8
:1010A00040000028F1D09D480838006820F0F80082
:1010B000216940EAC10099490839086014E000201C
:1010C00097490860FFF75AFA054606E0FFF756FA17
:1010D000401B022801D9032026E790480838006801
:1010E000C0F340000028F1D1207800F00800082863
:1010F0002CD16069A8B101208A490860FFF73EFA47
:10110000054606E0FFF73AFA401B022801D9032002
:101110000AE782486C300068C0F340000028F1D034
:1011200014E000207F490860FFF728FA054606E032
:10113000FFF724FA401B022801D90320F4E6774880
:101140006C300068C0F340000028F1D1207800F036
:101150000400042870D1002770483830006800F07F
:10116000805090B900BF002000906C483830006873
:1011700040F080506949383108600846006800F046
:101180008050009000BF00BF01276748006800F44E
:101190008070B0B96448006840F4807062490860AB
:1011A000FFF7ECF9054606E0FFF7E8F9401B0228D7
:1011B00001D90320B8E65C48006800F4807000287C
:1011C000F2D000BFA068012808D1544868300068F8
:1011D00040F001005149683108601DE0A068052811
:1011E0000DD14E486830006840F004004B4968312A
:1011F00008600846006840F0010008600CE04748BD
:101200006830006820F001004449683108600846F1
:10121000006820F00400086000BFA068A8B1FFF7D4
:10122000ADF9054609E0FFF7A9F9401B41F2883105
:10123000884202D9032077E626E038486830006803
:10124000C0F340000028EED013E0FFF797F9054601
:1012500008E0FFF793F9401B41F28831884201D939
:10126000032061E62D4868300068C0F34000002884
:10127000EFD1012F07D129483830006820F0805085
:1012800026493831086000BFA069002845D02348AE
:10129000006800F00C0008285DD0A069022845D144
:1012A00000201F490866FFF769F9054606E0FFF7C9
:1012B00065F9401B022801D9032035E61748083894
:1012C0000068C0F340600028F1D1D4E90701084369
:1012D000616A40EA81110122A06AC2EB500041EA32
:1012E00000412C20005D41EA00600C49091F0860A4
:1012F00001200B490866FFF741F9054606E0FFF7B4
:101300003DF9401B022801D903200DE603480838A7
:101310000068C0F340600028F1D049E0083802407E
:1013200000004742800E47420070004000202149E3
:101330000866FFF723F9054606E0FFF71FF9401B93
:10134000022801D90320EFE51B480068C0F3406084
:101350000028F2D12CE0A069012800D1E4E516486C
:10136000001D0668A069012820D006F48001E0690C
:1013700081421BD106F03F01206A814216D147F617
:10138000C0703040616AB0EB811F0FD106F440316C
:101390000122A06AC2EB5000B1EB004F06D106F06B
:1013A00070612C20005DB1EB006F01D00120BBE526
:1013B0000020B9E50000474200380240042808D167
:1013C0004FF0E021096941F004014FF0E022116182
:1013D00007E04FF0E021096921F004014FF0E0221D
:1013E0001161704770B504462546681EB0F1807FD4
:1013F00001D301200FE0681E4FF0E02148610F216A
:101400004FF0FF3000F0D2FD00204FF0E021886166
:1014100007200861002070BD10B504460CB90120FA
:1014200010BDA06900B100E000BF94F83D0028B9EC
:10143000002084F83C00204600F028F8242084F89E
:101440003D002068C06820F400502168C860204634
:1014500000F03AFC2068006920F49040216808619F
:101460002068406920F02A00216848612068C0682F
:1014700040F400502168C86000202064202084F8D7
:101480003D0084F83E000020CAE7000010B586B099
:10149000044600BF002005901C48006840F0010091
:1014A0001A4908600846006800F00100059000BF76
:1014B00000BF00BF0020059014481430006840F0C1
:1014C00010001249143108600846006800F010004E
:1014D000059000BF00BF0E492068884213D1142137
:1014E00001A8FEF7A5FE4FF4C06001900220029013
:1014F00000200390032004900720059001A90548CF
:10150000FEF742FF00BF06B010BD000030380240B9
:1015100000100140000002402DE9F84F04460E463D
:10152000174699464FF0000A94F83D0020285AD1FA
:1015300006B117B90120BDE8F88F00BF94F83C0050
:10154000012801D10220F6E7012084F83C0000BF09
:1015500000202064212084F83D00FFF70FF8824628
:10156000A784E784A068B0F5805F04D1206910B932
:101570000025B04602E035464FF0000800BF0020CD
:1015800084F83C0000BF1BE0534600228021204627
:10159000CDF8009000F0AEFC08B10320CBE745B9D0
:1015A000B8F80000C0F308002168486008F102089C
:1015B00003E02878216848606D1CE08C401EE084C0
:1015C000E08C0028E0D15346002240212046CDF88F
:1015D000009000F08FFC08B10320ACE7202084F8D5
:1015E0003D000020A7E70220A5E700BFFEE70000BE
:1015F00000B587B000BF002001902A48006840F085
:101600002000284908600846006800F0200001908A
:1016100000BF00BF142102A8FEF70AFE01200290BD
:1016200012200390002004900320059004200690CF
:1016300002A91D48FEF7A8FE022002901220039086
:1016400000200490032005900420069002A916486B
:10165000FEF79AFE00BF002001901248103000688B
:1016600040F480000F49103108600846006800F41B
:101670008000019000BF00BF0C480D4908600D4874
:10168000486000210A488160C1604FF480410161D7
:10169000002141618161C1610162FEF775FF07B000
:1016A00000BD0000303802400014024000580040E5
:1016B0005C000020A0860100014608684069C0F374
:1016C0008020B0B16FF480600A6850610020086328
:1016D000202081F83D00002081F83E00086C40F099
:1016E0000400086400BF002081F83C0000BF012016
:1016F00070470020FCE700002DE9F84304460F4640
:1017000015469946DDE908862068006840F4806047
:10171000216808602068006840F4807021680860D3
:10172000434600224FF001112046009600F032F9A6
:1017300060B12068006800F48070B0F5807F02D14D
:101740004FF4007020640320BDE8F88307F0FE002A
:1017500021680861334642463E49204600F05DF963
:1017600008B10120F0E700BF002000902068406928
:10177000009020688069009000BF00BF324641465B
:10178000204600F0ECF950B1206C042805D1206807
:10179000006840F40070216808600120D4E7B9F1C6
:1017A000010F03D1E8B22168086117E0C5F30720F3
:1017B0002168086132464146204600F0D0F950B118
:1017C000206C042805D12068006840F4007021686E
:1017D00008600120B8E7E8B2216808613246414656
:1017E000204600F0BCF950B1206C042805D12068D7
:1017F000006840F40070216808600120A4E72068B8
:10180000006840F4807021680860434600224FF071
:1018100001112046009600F0BDF858B1206800681C
:1018200000F48070B0F5807F02D14FF40070206426
:10183000032089E7F8B240F00100216808613346CF
:1018400042460449204600F0E8F808B101207BE751
:10185000002079E7020001002DE9F843044688469C
:1018600015469946DDE908672068006840F48070F5
:1018700021680860334600224FF00111204600978E
:1018800000F088F860B12068006800F48070B0F55E
:10189000807F02D14FF4007020640320BDE8F883FC
:1018A00008F0FE00216808613B4632462149204687
:1018B00000F0B3F808B10120F0E700BF002000906D
:1018C00020684069009020688069009000BF00BFD8
:1018D0003A463146204600F042F950B1206C0428C7
:1018E00005D12068006840F400702168086001207C
:1018F000D4E7B9F1010F03D1E8B22168086117E01C
:10190000C5F30720216808613A463146204600F0B9
:1019100026F950B1206C042805D12068006840F4F5
:101920000070216808600120B8E7E8B2216808610A
:101930000020B3E70200010070B504460D461646CC
:1019400020E02046FFF7B8FE08B1012070BD681CFA
:10195000C0B1FEF713FE801BA84200D895B9002045
:101960002063202084F83D00002084F83E00206C95
:1019700040F02000206400BF002084F83C0000BF3D
:101980000120E3E720684069C0F380000028D8D038
:101990000020DBE72DE9F04104460D4617461E46C0
:1019A000DDF818801CE0701CD0B1FEF7E7FDA0EB5D
:1019B0000800B04200D89EB900202063202084F89F
:1019C0003D00002084F83E00206C40F020002064A0
:1019D00000BF002084F83C0000BF0120BDE8F0817A
:1019E000C5F3074001280AD120684069A9B2084020
:1019F000A9B2884201D101200BE0002009E0206853
:101A00008069A9B20840A9B2884201D1012000E052
:101A10000020B842C7D00020E0E72DE9F04104469D
:101A20000D4616461F463DE020684069C0F3802001
:101A3000E8B12068006840F40070216808606FF425
:101A400080602168486100202063202084F83D00E8
:101A5000002084F83E00206C40F00400206400BFA9
:101A6000002084F83C0000BF0120BDE8F081701C1C
:101A7000C0B1FEF783FDC01BB04200D896B900206C
:101A80002063202084F83D00002084F83E00206C74
:101A900040F02000206400BF002084F83C0000BF1C
:101AA0000120E2E7C5F3074001280AD12068406918
:101AB000A9B20840A9B2884201D101200BE0002060
:101AC00009E020688069A9B20840A9B2884201D122
:101AD000012000E000200028A6D00020C5E770B556
:101AE00004460D46164632E020684069C0F30010F7
:101AF000A0B16FF010002168486100202063202011
:101B000084F83D00002084F83E00206C206400BF73
:101B1000002084F83C0000BF012070BDFEF72EFDC0
:101B2000801BA84200D895B900202063202084F8AB
:101B30003D00002084F83E00206C40F0200020642E
:101B400000BF002084F83C0000BF0120E5E72068CA
:101B50004069C0F380100028C6D00020DDE770B5D2
:101B600004460D46164620E02046FFF7A5FD08B1C5
:101B7000012070BD681CC0B1FEF700FD801BA842AB
:101B800000D895B900202063202084F83D00002073
:101B900084F83E00206C40F02000206400BF00204C
:101BA00084F83C0000BF0120E3E720684069C0F3EF
:101BB000C0100028D8D00020DBE700BFFEE7704748
:101BC0007047704710B5FEF7F5FF10BD00B593B034
:101BD000302107A8FEF72CFB142102A8FEF728FBF2
:101BE00000BF002001902548006840F08050234944
:101BF00008600846006800F08050019000BF00BFF8
:101C000000BF002001901E48006840F480401C493D
:101C100008600846006800F48040019000BF00BFE3
:101C20004FF4803008900120079002200D9041056C
:101C30000E9104210F91A8211091022111910421EC
:101C4000129100BF07A8FFF76BF90028FAD10490A2
:101C50004FF4A05005904FF4805006900F20029052
:101C60000220039000BF052102A8FFF713F8002807
:101C7000F9D1FFF7D1F813B000BD000040380240A1
:101C8000007000400348006840F47000014908609B
:101C90007047000088ED00E010B504460848094987
:101CA00008600846446000210161C16081600C2128
:101CB000416100218161C161FFF7AEFB10BD0000F1
:101CC00000100140180000202DE9F84F044620685C
:101CD000006920F44050E1680843216808612169E7
:101CE000A068084361690843E169084300902068DF
:101CF000C06849F20C618843009908432168C860B4
:101D00002068406920F44070A16908432168486157
:101D100076492068884203D075492068884203D1FB
:101D2000FFF796F8814602E0FFF782F88146E06906
:101D3000B0F5004F6CD102206168A0FB0150034652
:101D40001920A9FB007001462A463846FEF738FAEA
:101D50006421B0FBF1F04FEA001A02206168A0FB99
:101D600001510B461920A9FB00712A463846FEF79F
:101D700027FA834602206168A0FB01500346192020
:101D8000A9FB00712A463846FEF71AFA6421B0FB17
:101D9000F1F000EBC00101EB0010ABEB8000322151
:101DA00001EBC0006421B0FBF1F000F0F8000AEB99
:101DB000400A02206168A0FB015003461920A9FBDC
:101DC000007001462A463846FEF7FAF9834602209B
:101DD0006168A0FB015003461920A9FB00712A4647
:101DE0003846FEF7EDF96421B0FBF1F000EBC001DD
:101DF00001EB0010ABEB8000322101EBC00064214D
:101E0000B0FBF1F000F007005044216888606AE000
:101E100004206168A0FB015003461920A9FB007053
:101E200001462A463846FEF7CBF98246042061680F
:101E3000A0FB015003461920A9FB007001462A4669
:101E40003846FEF7BDF96421B0FBF1F000EBC001AC
:101E500001EB0010AAEB8000322101EB001064219D
:101E6000B0FBF1F000F0F00A04206168A0FB017003
:101E700003461920A9FB00513A462846FEF7A0F96F
:101E80006421B0FBF1F00AEB001A04206168A0FBAA
:101E900001510B461920A9FB00712A463846FEF76E
:101EA0008FF9834604206168A0FB01500346192086
:101EB000A9FB007001462A463846FEF781F96421E5
:101EC000B0FBF1F000EBC00101EB0010ABEB8000C8
:101ED000322101EB00106421B0FBF1F000F00F00A3
:101EE000504421688860BDE8F88F00000010014070
:101EF000001401402DE9F04104460D46174698466E
:101F0000069E34E0701C88B32EB1FEF737FBA0EBC1
:101F10000800B0422BD900BF00BF21680C3151E846
:101F2000001F21F4D07021680C3141E80002002A22
:101F3000F3D100BF00BF00BF2168143151E8001F7A
:101F400021F001002168143141E80002002AF3D198
:101F500000BF202084F83D0084F83E0000BF002030
:101F600084F83C0000BF0320BDE8F081FFE7206853
:101F700000682840A84201D1012000E00020B842BA
:101F8000C0D00020F0E700BFFEE70000014A024990
:101F900000F02FB815200008140000200248006847
:101FA000C0F30220704700000CED00E010B50028DF
:101FB00004DB0A07130E054A135406E00A07140E41
:101FC000034A00F00F031B1FD45410BD00E400E0CF
:101FD00018ED00E002E008C8121F08C1002AFAD17B
:101FE00070477047002001E001C1121F002AFBD199
:101FF00070472DE9F04116460F460446002503E0E0
:102000003946B047641C6D1C20780028F8D128465A
:10201000BDE8F08113B50C464FF47A73012269468E
:102020000648FFF779FA00BF044800680068C0F36B
:1020300080100028F8D000981CBD00001800002077
:10204000FFF7C4FDA820FEF78FF94FF4E130FFF74A
:1020500023FEFFF7CDFA03480078FEF725F900BF0D
:10206000FEE700000D00002000000000000000005E
:10207000010203040607080900000000010203042E
:10208000A02000080000002018000000D41F000855
:10209000B82000081800002098040000E41F000881
:1020A0000024F400000000001000000001BE000049
:0820B000000000000000000028
:040000050800018965
:00000001FF
