:020000040800F2
:10000000600400209D010008770F00086F0F0008B2
:10001000730F0008A9020008871300080000000001
:100020000000000000000000000000007B0F00083E
:10003000AD02000800000000790F00087D0F0008E5
:10004000B7010008B7010008B7010008B7010008B0
:10005000B7010008B7010008B7010008B7010008A0
:10006000B7010008B7010008B7010008B701000890
:10007000B7010008B7010008B7010008B701000880
:10008000B7010008B7010008B7010008B701000870
:10009000B7010008B7010008B7010008B701000860
:1000A000B7010008B7010008B7010008B701000850
:1000B000B7010008B7010008B7010008B701000840
:1000C000B7010008B7010008B7010008B701000830
:1000D000B7010008B7010008B7010008B701000820
:1000E000B7010008B7010008B7010008B701000810
:1000F000B7010008B7010008B7010008B701000800
:10010000B7010008B7010008B7010008B7010008EF
:10011000B7010008B7010008B7010008B7010008DF
:10012000B7010008B7010008B7010008B7010008CF
:10013000B7010008B7010008B7010008B7010008BF
:10014000B7010008B7010008B7010008B7010008AF
:10015000B7010008B7010008B7010008B70100089F
:10016000B7010008B7010008B7010008B70100088F
:10017000B7010008B7010008B7010008000000003F
:10018000B7010008B7010008DFF80CD000F07AF8DA
:1001900000480047411400086004002006488047DA
:1001A00006480047FEE7FEE7FEE7FEE7FEE7FEE75C
:1001B000FEE7FEE7FEE7FEE73D10000889010008C4
:1001C0002DE9F05F0546002092469B46884606468C
:1001D000814640241BE0284641464746224600F01F
:1001E00041F853465A46C01A914110D31146184659
:1001F000224600F028F82D1A67EB01084F462246E8
:100200000120002100F01FF817EB00094E41201ECD
:10021000A4F10104DFDC484631462A464346BDE8E6
:10022000F09FD2B201E000F8012B491EFBD27047CB
:100230000022F6E710B513460A4604461946FFF7B2
:10024000F0FF204610BD202A04DB203A00FA02F11C
:10025000002070479140C2F1200320FA03F31943B4
:1002600090407047202A04DB203A21FA02F0002156
:10027000704721FA02F3D040C2F1200291400843B6
:1002800019467047064C074D06E0E06840F0010350
:1002900094E8070098471034AC42F6D3FFF778FF94
:1002A000AC140008CC14000800BFFEE77047000043
:1002B00010B5044600204FF0E021086100F040FD39
:1002C0001520B4FBF0F00149086010BD10000020BB
:1002D000F8B502460B460025002400200021D6E098
:1002E000012606FA01F51E6806EA0504AC4274D13F
:1002F0001E7906F00306012E04D01E7906F00306CF
:10030000022E13D190684F000326BE40B0434F0029
:10031000DE68BE4030439060506801268E40B04396
:100320001E79C6F300168E40304350601E7906F0E9
:100330000306032E09D0D0684F000326BE40B04309
:100340004F009E68BE403043D0601E7906F0030621
:10035000022E13D1CF0802F1200656F827004E07CF
:10036000F70E0F26BE40B0434F07FF0E1E69BE407A
:100370003043CF0802F1200646F8270010684F00EE
:100380000326BE40B0431E7906F003064F00BE4070
:10039000304310605E6806F44036002E76D000BF11
:1003A000002600963C4E366846F480463A4F3E6042
:1003B0003E46366806F48046009600BF00BF374EC2
:1003C0008F0856F827008E07370F0F26BE40B04320
:1003D000334EB24202D1002624E057E0314EB24201
:1003E00001D101261EE0304EB24201D1022619E0B1
:1003F0002E4EB24201D1032614E02D4EB24201D15D
:1004000004260FE02B4EB24201D105260AE02A4E07
:10041000B24201D1062605E0284EB24201D107269C
:1004200000E008268F073F0FBE4030431B4E8F0869
:1004300046F82700224E3068A0435E6806F4801616
:1004400006B120431E4E3060361D3068A0435E6802
:1004500006F4001606B12043194E361D3060184EC2
:10046000361F3068A0435E6806F4003606B12043AC
:10047000134E361F3060361F3068A0435E6806F4A6
:10048000803606B120430E4E083E3060491C1029CC
:10049000FFF426AFF8BD00004438024008380140A0
:1004A000000002400004024000080240000C02402C
:1004B000001002400014024000180240001C0240DC
:1004C000083C01400148006870470000040000201B
:1004D00003480068034909780844014908607047E7
:1004E000040000200C00002010B50D48006840F406
:1004F00000700B4908600846006840F4806008609E
:100500000846006840F480700860032000F070F82E
:100510000F2000F007F800F02BF8002010BD0000BD
:10052000003C024070B504460E4800784FF47A71E2
:10053000B1FBF0F00C490968B1FBF0F5284600F07A
:1005400013FC08B1012070BD102C07D200222146F7
:10055000501E00F00EF80548046001E00120F2E7AB
:100560000020F0E70C000020000000200800002020
:1005700070472DE9F05F80460D461646002700F0D3
:100580000DFF074639462A46334601F00700C0F101
:10059000070ABAF1040F02D94FF0040A01E0C0F1D2
:1005A000070AD14600F1040ABAF1070F02D24FF050
:1005B000000A01E0A0F1030AD4464FF0010A0AFA4A
:1005C00009FAAAF1010A0AEA020A0AFA0CFA4FF039
:1005D000010B0BFA0CFBABF1010B0BEA030B4AEA24
:1005E0000B042146404600F0E1FEBDE8F09F00000C
:1005F00000BF00F00702064B19684FF6FF031940D1
:10060000044B0B4343EA0221014B196000BF7047C2
:100610000CED00E00000FA0570B504460D460CB97B
:10062000012070BD5848006800F00700A84209D2B8
:1006300055490D700846006800F00700A84201D037
:100640000120EEE7207800F0020002281DD120787A
:1006500000F00400042805D14C48006840F4E05044
:100660004A490860207800F00800082805D147486A
:10067000006840F46040454908604448006820F044
:10068000F000A168084341490860207800F00100AB
:10069000A8B36068012807D13C4808380068C0F357
:1006A0004040B8B90120BCE76068022802D0606809
:1006B000032807D1354808380068C0F3406048B9BE
:1006C0000120AEE7314808380068C0F3400008B99F
:1006D0000120A6E72D48006820F003006168084368
:1006E0002A490860FFF7EEFE064609E0FFF7EAFE3A
:1006F000801B41F28831884202D9032091E707E04C
:100700002248006800F00C006168B0EB810FEDD169
:100710001D48006800F00700A84209D91A490D7069
:100720000846006800F00700A84201D0012078E7E1
:10073000207800F00400042807D11448006820F451
:10074000E050E168084311490860207800F0080093
:10075000082808D10D48006820F46040216940EA6B
:10076000C1000A49086000F045F808490968C1F36A
:100770000311074A515CC8400649086006480068F2
:10078000FFF7D0FE00204CE7003C02400838024052
:1007900094140008000000200800002001200149F6
:1007A000C864704700004742014800687047000075
:1007B0000000002000B5FFF7F7FF04490968C1F306
:1007C0008221034A515CC84000BD00000838024045
:1007D000A414000800B5FFF7E7FF04490968C1F356
:1007E0004231034A515CC84000BD00000838024055
:1007F000A41400082DE9F047002400250026A14696
:100800002548006800F00C0020B1042805D0082815
:100810003AD105E0DFF8849039E0DFF8849036E0E3
:100820001D48001F006800F03F041B48001F0068BF
:1008300000F4800078B11A481749091F0968C1F30C
:100840008811A0FB01700146224600233846FFF7BD
:10085000B7FC05460EE011480F49091F0968C1F3AE
:100860008811A0FB01700146224600233846FFF79D
:10087000A7FC05460848001F0068C0F30140401C63
:100880004600B5FBF6F902E0DFF8109000BF00BFAC
:100890004846BDE8F0870000083802400024F40014
:1008A00000127A00F8B504460CB90120F8BD207892
:1008B00000F00100002874D0F948006800F00C0036
:1008C00004280DD0F648006800F00C00082813D169
:1008D000F348001F006800F48000B0F5800F0BD1D2
:1008E000EF4808380068C0F34040002859D06068DD
:1008F000002856D10120D9E700BF6068B0F5803FDD
:1009000008D1E7480838006840F48030E4490839E5
:1009100008601EE06068B0F5A02F0DD1E0480838EF
:10092000006840F48020DE49083908600846006805
:1009300040F4803008600CE0D9480838006820F4A2
:100940008030D749083908600846006820F48020C4
:10095000086000BF606890B1FFF7B4FD054606E08F
:10096000FFF7B0FD401B642801D903209EE7CC4867
:1009700008380068C0F340400028F1D011E0FFF7CC
:10098000A1FD054606E0FFF79DFD401B642801D947
:1009900003208BE7C24808380068C0F340400028B5
:1009A000F1D1207800F0020002285FD1BC48006835
:1009B00000F00C0058B1BA48006800F00C0008289C
:1009C0001CD1B748001F006800F48000B0B9B448DB
:1009D00008380068C0F3400020B1E068012801D069
:1009E000012063E7AE480838006820F0F80021696C
:1009F00040EAC100AA490839086037E0E06800B35E
:100A00000120A8490860FFF75DFD054606E0FFF7F5
:100A100059FD401B022801D9032047E7A0480838A8
:100A20000068C0F340000028F1D09D4808380068F5
:100A300020F0F800216940EAC100994908390860AE
:100A400014E0002097490860FFF73CFD054606E0EA
:100A5000FFF738FD401B022801D9032026E7904804
:100A600008380068C0F340000028F1D1207800F079
:100A7000080008282CD16069A8B101208A490860C3
:100A8000FFF720FD054606E0FFF71CFD401B02288E
:100A900001D903200AE782486C300068C0F34000A7
:100AA0000028F1D014E000207F490860FFF70AFD1C
:100AB000054606E0FFF706FD401B022801D903208A
:100AC000F4E677486C300068C0F340000028F1D1AC
:100AD000207800F00400042870D1002770483830D6
:100AE000006800F0805090B900BF002000906C4872
:100AF0003830006840F08050694938310860084655
:100B0000006800F08050009000BF00BF01276748D8
:100B1000006800F48070B0B96448006840F48070E8
:100B200062490860FFF7CEFC054606E0FFF7CAFC05
:100B3000401B022801D90320B8E65C48006800F495
:100B400080700028F2D000BFA068012808D1544866
:100B50006830006840F001005149683108601DE0CC
:100B6000A06805280DD14E486830006840F00400A8
:100B70004B49683108600846006840F00100086091
:100B80000CE047486830006820F0010044496831B3
:100B900008600846006820F00400086000BFA068F4
:100BA000A8B1FFF78FFC054609E0FFF78BFC401B5F
:100BB00041F28831884202D9032077E626E038489E
:100BC00068300068C0F340000028EED013E0FFF763
:100BD00079FC054608E0FFF775FC401B41F28831BF
:100BE000884201D9032061E62D4868300068C0F3CF
:100BF00040000028EFD1012F07D129483830006884
:100C000020F0805026493831086000BFA0690028D4
:100C100045D02348006800F00C0008285DD0A0698A
:100C2000022845D100201F490866FFF74BFC054606
:100C300006E0FFF747FC401B022801D9032035E6F8
:100C4000174808380068C0F340600028F1D1D4E9A3
:100C500007010843616A40EA81110122A06AC2EBE0
:100C6000500041EA00412C20005D41EA00600C493F
:100C7000091F086001200B490866FFF723FC0546A1
:100C800006E0FFF71FFC401B022801D903200DE6F8
:100C9000034808380068C0F340600028F1D049E0FC
:100CA0000838024000004742800E47420070004072
:100CB000002021490866FFF705FC054606E0FFF71E
:100CC00001FC401B022801D90320EFE51B48006806
:100CD000C0F340600028F2D12CE0A069012800D1C7
:100CE000E4E51648001D0668A069012820D006F436
:100CF0008001E06981421BD106F03F01206A8142F8
:100D000016D147F6C0703040616AB0EB811F0FD139
:100D100006F440310122A06AC2EB5000B1EB004F53
:100D200006D106F070612C20005DB1EB006F01D0A0
:100D30000120BBE50020B9E5000047420038024031
:100D4000042808D14FF0E021096941F004014FF077
:100D5000E022116107E04FF0E021096921F0040170
:100D60004FF0E0221161704770B504462546681EB9
:100D7000B0F1807F01D301200FE0681E4FF0E02129
:100D800048610F214FF0FF3000F010FB00204FF0C2
:100D9000E021886107200861002070BD10B504467D
:100DA0000CB9012010BDA06900B100E000BF94F8AB
:100DB0003D0028B9002084F83C00204600F028F8C7
:100DC000242084F83D002068C06820F40050216889
:100DD000C860204600F078F92068006920F490404F
:100DE000216808612068406920F02A002168486174
:100DF0002068C06840F400502168C860002020646A
:100E0000202084F83D0084F83E000020CAE700005E
:100E100010B586B0044600BF002005901C4800684D
:100E200040F001001A4908600846006800F001001F
:100E3000059000BF00BF00BF00200590144814308B
:100E4000006840F01000124914310860084600683C
:100E500000F01000059000BF00BF0E4920688842D6
:100E600013D1142101A8FFF7E3F94FF4C0600190FA
:100E70000220029000200390032004900720059098
:100E800001A90548FFF724FA00BF06B010BD000015
:100E90003038024000100140000002402DE9F84FB8
:100EA00004460E46174699464FF0000A94F83D0056
:100EB00020285AD106B117B90120BDE8F88F00BF2C
:100EC00094F83C00012801D10220F6E7012084F8C3
:100ED0003C0000BF00202064212084F83D00FFF783
:100EE000F1FA8246A784E784A068B0F5805F04D158
:100EF000206910B90025B04602E035464FF00008E1
:100F000000BF002084F83C0000BF1BE053460022D5
:100F100080212046CDF8009000F0ECF908B10320C4
:100F2000CBE745B9B8F80000C0F308002168486075
:100F300008F1020803E02878216848606D1CE08C05
:100F4000401EE084E08C0028E0D15346002240217E
:100F50002046CDF8009000F0CDF908B10320ACE7B1
:100F6000202084F83D000020A7E70220A5E700BF6D
:100F7000FEE700BFFEE770477047704710B5FFF708
:100F8000A7FA10BD00B593B0302107A8FFF750F9BC
:100F9000142102A8FFF74CF900BF0020019025485A
:100FA000006840F08050234908600846006800F05F
:100FB0008050019000BF00BF00BF002001901E487C
:100FC000006840F480401C4908600846006800F44E
:100FD0008040019000BF00BF4FF480300890012096
:100FE000079002200D9041050E9104210F91A82138
:100FF0001091022111910421129100BF07A8FFF75F
:1010000051FC0028FAD104904FF4A05005904FF401
:10101000805006900F2002900220039000BF05210F
:1010200002A8FFF7F9FA0028F9D1FFF7B7FB13B0D0
:1010300000BD0000403802400070004003480068D6
:1010400040F47000014908607047000088ED00E03E
:1010500010B5044608480949086008464460002164
:101060000161C16081600C21416100218161C16128
:10107000FFF794FE10BD0000001001401C0000208E
:1010800070B5044600256FF040000E4909680860FD
:1010900014E061194FF47A7301220A48FFF7FEFE4B
:1010A00000BF084800680068C0F380100028F8D02E
:1010B0006FF040000349096808606D1C605D0028FE
:1010C000E7D170BD1C0000202DE9F84F04462068D0
:1010D000006920F44050E1680843216808612169F3
:1010E000A068084361690843E169084300902068EB
:1010F000C06849F20C618843009908432168C860C0
:101100002068406920F44070A16908432168486163
:1011100076492068884203D075492068884203D107
:10112000FFF758FB814602E0FFF744FB8146E06988
:10113000B0F5004F6CD102206168A0FB015003465E
:101140001920A9FB007001462A463846FFF738F8F7
:101150006421B0FBF1F04FEA001A02206168A0FBA5
:1011600001510B461920A9FB00712A463846FFF7AA
:1011700027F8834602206168A0FB0150034619202E
:10118000A9FB00712A463846FFF71AF86421B0FB24
:10119000F1F000EBC00101EB0010ABEB800032215D
:1011A00001EBC0006421B0FBF1F000F0F8000AEBA5
:1011B000400A02206168A0FB015003461920A9FBE8
:1011C000007001462A463846FEF7FAFF83460220A1
:1011D0006168A0FB015003461920A9FB00712A4653
:1011E0003846FEF7EDFF6421B0FBF1F000EBC001E3
:1011F00001EB0010ABEB8000322101EBC000642159
:10120000B0FBF1F000F007005044216888606AE00C
:1012100004206168A0FB015003461920A9FB00705F
:1012200001462A463846FEF7CBFF82460420616815
:10123000A0FB015003461920A9FB007001462A4675
:101240003846FEF7BDFF6421B0FBF1F000EBC001B2
:1012500001EB0010AAEB8000322101EB00106421A9
:10126000B0FBF1F000F0F00A04206168A0FB01700F
:1012700003461920A9FB00513A462846FEF7A0FF75
:101280006421B0FBF1F00AEB001A04206168A0FBB6
:1012900001510B461920A9FB00712A463846FEF77A
:1012A0008FFF834604206168A0FB0150034619208C
:1012B000A9FB007001462A463846FEF781FF6421EB
:1012C000B0FBF1F000EBC00101EB0010ABEB8000D4
:1012D000322101EB00106421B0FBF1F000F00F00AF
:1012E000504421688860BDE8F88F0000001001407C
:1012F000001401402DE9F04104460D46174698467A
:10130000069E34E0701C88B32EB1FFF7DBF8A0EB2B
:101310000800B0422BD900BF00BF21680C3151E852
:10132000001F21F4D07021680C3141E80002002A2E
:10133000F3D100BF00BF00BF2168143151E8001F86
:1013400021F001002168143141E80002002AF3D1A4
:1013500000BF202084F83D0084F83E0000BF00203C
:1013600084F83C0000BF0320BDE8F081FFE720685F
:1013700000682840A84201D1012000E00020B842C6
:10138000C0D00020F0E700BFFEE70000014A02499C
:1013900000F02FB81514000818000020024800685B
:1013A000C0F30220704700000CED00E010B50028EB
:1013B00004DB0A07130E054A135406E00A07140E4D
:1013C000034A00F00F031B1FD45410BD00E400E0DB
:1013D00018ED00E002E008C8121F08C1002AFAD187
:1013E00070477047002001E001C1121F002AFBD1A5
:1013F00070472DE9F04116460F460446002503E0EC
:101400003946B047641C6D1C20780028F8D1284666
:10141000BDE8F08113B50C464FF47A73012269469A
:101420000648FFF73BFD00BF044800680068C0F3B2
:1014300080100028F8D000981CBD00001C0000207F
:10144000FFF752F8FFF79EFDA820FEF731FF4FF49B
:10145000E130FFF7FDFD07A0FFF798FF0AA0FFF7B7
:101460000FFE4FF47A73012208490948FFF716FD71
:1014700000BFFEE777656C636F6D6520746F206D4C
:101480006375210D0A000000310D0A0014000020D0
:101490001C00002000000000000000000102030406
:1014A000060708090000000001020304CC1400082C
:1014B000000000201C000000D4130008E8140008FD
:1014C0001C00002044040000E41300080024F40081
:1014D00000000000100000000100000000000000FB
:0814E000010000000000000003
:040000050800018965
:00000001FF
